{
  "_format": "hh-sol-artifact-1",
  "contractName": "Registration",
  "sourceName": "contracts/Registration.sol",
  "abi": [
    {
      "inputs": [],
      "stateMutability": "nonpayable",
      "type": "constructor"
    },
    {
      "inputs": [
        {
          "internalType": "address",
          "name": "client",
          "type": "address"
        }
      ],
      "name": "ban",
      "outputs": [],
      "stateMutability": "nonpayable",
      "type": "function"
    },
    {
      "inputs": [],
      "name": "getOwner",
      "outputs": [
        {
          "internalType": "address",
          "name": "",
          "type": "address"
        }
      ],
      "stateMutability": "view",
      "type": "function"
    },
    {
      "inputs": [
        {
          "internalType": "uint256",
          "name": "count",
          "type": "uint256"
        }
      ],
      "name": "getRandomRegistrant",
      "outputs": [
        {
          "internalType": "address[]",
          "name": "",
          "type": "address[]"
        }
      ],
      "stateMutability": "view",
      "type": "function"
    },
    {
      "inputs": [],
      "name": "getRegistrants",
      "outputs": [
        {
          "internalType": "address[]",
          "name": "",
          "type": "address[]"
        }
      ],
      "stateMutability": "view",
      "type": "function"
    },
    {
      "inputs": [
        {
          "internalType": "address",
          "name": "client",
          "type": "address"
        }
      ],
      "name": "isBanned",
      "outputs": [
        {
          "internalType": "bool",
          "name": "",
          "type": "bool"
        }
      ],
      "stateMutability": "view",
      "type": "function"
    },
    {
      "inputs": [
        {
          "internalType": "address",
          "name": "client",
          "type": "address"
        }
      ],
      "name": "isRegistered",
      "outputs": [
        {
          "internalType": "bool",
          "name": "",
          "type": "bool"
        }
      ],
      "stateMutability": "view",
      "type": "function"
    },
    {
      "inputs": [
        {
          "internalType": "address",
          "name": "client",
          "type": "address"
        }
      ],
      "name": "isValid",
      "outputs": [
        {
          "internalType": "bool",
          "name": "",
          "type": "bool"
        }
      ],
      "stateMutability": "view",
      "type": "function"
    },
    {
      "inputs": [
        {
          "internalType": "address",
          "name": "client",
          "type": "address"
        }
      ],
      "name": "register",
      "outputs": [],
      "stateMutability": "nonpayable",
      "type": "function"
    },
    {
      "inputs": [
        {
          "internalType": "address",
          "name": "client",
          "type": "address"
        }
      ],
      "name": "unregister",
      "outputs": [],
      "stateMutability": "nonpayable",
      "type": "function"
    }
  ],
  "bytecode": "0x6080604052348015600f57600080fd5b5033600360006101000a81548173ffffffffffffffffffffffffffffffffffffffff021916908373ffffffffffffffffffffffffffffffffffffffff160217905550611088806100606000396000f3fe608060405234801561001057600080fd5b50600436106100935760003560e01c80638b1b925f116100665780638b1b925f1461010c57806397c3ccd81461013c57806397f735d514610158578063985a2f9214610188578063c3c5a547146101b857610093565b8063052b2aa7146100985780632ec2c246146100b65780634420e486146100d2578063893d20e8146100ee575b600080fd5b6100a06101e8565b6040516100ad9190610ac3565b60405180910390f35b6100d060048036038101906100cb9190610b16565b610276565b005b6100ec60048036038101906100e79190610b16565b61035d565b005b6100f66104a7565b6040516101039190610b52565b60405180910390f35b61012660048036038101906101219190610b16565b6104d1565b6040516101339190610b88565b60405180910390f35b61015660048036038101906101519190610b16565b61057d565b005b610172600480360381019061016d9190610b16565b610664565b60405161017f9190610b88565b60405180910390f35b6101a2600480360381019061019d9190610bd9565b6106ba565b6040516101af9190610ac3565b60405180910390f35b6101d260048036038101906101cd9190610b16565b61097d565b6040516101df9190610b88565b60405180910390f35b6060600080548060200260200160405190810160405280929190818152602001828054801561026c57602002820191906000526020600020905b8160009054906101000a900473ffffffffffffffffffffffffffffffffffffffff1673ffffffffffffffffffffffffffffffffffffffff1681526020019060010190808311610222575b5050505050905090565b600160008273ffffffffffffffffffffffffffffffffffffffff1673ffffffffffffffffffffffffffffffffffffffff16815260200190815260200160002060009054906101000a900460ff16610302576040517f08c379a00000000000000000000000000000000000000000000000000000000081526004016102f990610c63565b60405180910390fd5b6000600160008373ffffffffffffffffffffffffffffffffffffffff1673ffffffffffffffffffffffffffffffffffffffff16815260200190815260200160002060006101000a81548160ff02191690831515021790555050565b600160008273ffffffffffffffffffffffffffffffffffffffff1673ffffffffffffffffffffffffffffffffffffffff16815260200190815260200160002060009054906101000a900460ff16156103ea576040517f08c379a00000000000000000000000000000000000000000000000000000000081526004016103e190610ccf565b60405180910390fd5b60018060008373ffffffffffffffffffffffffffffffffffffffff1673ffffffffffffffffffffffffffffffffffffffff16815260200190815260200160002060006101000a81548160ff0219169083151502179055506000819080600181540180825580915050600190039060005260206000200160009091909190916101000a81548173ffffffffffffffffffffffffffffffffffffffff021916908373ffffffffffffffffffffffffffffffffffffffff16021790555050565b6000600360009054906101000a900473ffffffffffffffffffffffffffffffffffffffff16905090565b6000600160008373ffffffffffffffffffffffffffffffffffffffff1673ffffffffffffffffffffffffffffffffffffffff16815260200190815260200160002060009054906101000a900460ff1680156105765750600260008373ffffffffffffffffffffffffffffffffffffffff1673ffffffffffffffffffffffffffffffffffffffff16815260200190815260200160002060009054906101000a900460ff16155b9050919050565b600160008273ffffffffffffffffffffffffffffffffffffffff1673ffffffffffffffffffffffffffffffffffffffff16815260200190815260200160002060009054906101000a900460ff16610609576040517f08c379a000000000000000000000000000000000000000000000000000000000815260040161060090610d3b565b60405180910390fd5b6001600260008373ffffffffffffffffffffffffffffffffffffffff1673ffffffffffffffffffffffffffffffffffffffff16815260200190815260200160002060006101000a81548160ff02191690831515021790555050565b6000600260008373ffffffffffffffffffffffffffffffffffffffff1673ffffffffffffffffffffffffffffffffffffffff16815260200190815260200160002060009054906101000a900460ff169050919050565b6060600080549050821115610704576040517f08c379a00000000000000000000000000000000000000000000000000000000081526004016106fb90610dcd565b60405180910390fd5b6101008210610748576040517f08c379a000000000000000000000000000000000000000000000000000000000815260040161073f90610e5f565b60405180910390fd5b6000808054806020026020016040519081016040528092919081815260200182805480156107cb57602002820191906000526020600020905b8160009054906101000a900473ffffffffffffffffffffffffffffffffffffffff1673ffffffffffffffffffffffffffffffffffffffff1681526020019060010190808311610781575b5050505050905060008367ffffffffffffffff8111156107ee576107ed610e7f565b5b60405190808252806020026020018201604052801561081c5781602001602082028036833780820191505090505b50905060008251905060005b8581101561097157600082824361083f9190610edd565b40428460405160200161085493929190610f5d565b6040516020818303038152906040528051906020012060001c6108779190610fc9565b905084818151811061088c5761088b610ffa565b5b60200260200101518483815181106108a7576108a6610ffa565b5b602002602001019073ffffffffffffffffffffffffffffffffffffffff16908173ffffffffffffffffffffffffffffffffffffffff1681525050846001846108ef9190610edd565b81518110610900576108ff610ffa565b5b602002602001015185828151811061091b5761091a610ffa565b5b602002602001019073ffffffffffffffffffffffffffffffffffffffff16908173ffffffffffffffffffffffffffffffffffffffff1681525050828061096090611029565b935050508080600101915050610828565b50819350505050919050565b6000600160008373ffffffffffffffffffffffffffffffffffffffff1673ffffffffffffffffffffffffffffffffffffffff16815260200190815260200160002060009054906101000a900460ff169050919050565b600081519050919050565b600082825260208201905092915050565b6000819050602082019050919050565b600073ffffffffffffffffffffffffffffffffffffffff82169050919050565b6000610a2a826109ff565b9050919050565b610a3a81610a1f565b82525050565b6000610a4c8383610a31565b60208301905092915050565b6000602082019050919050565b6000610a70826109d3565b610a7a81856109de565b9350610a85836109ef565b8060005b83811015610ab6578151610a9d8882610a40565b9750610aa883610a58565b925050600181019050610a89565b5085935050505092915050565b60006020820190508181036000830152610add8184610a65565b905092915050565b600080fd5b610af381610a1f565b8114610afe57600080fd5b50565b600081359050610b1081610aea565b92915050565b600060208284031215610b2c57610b2b610ae5565b5b6000610b3a84828501610b01565b91505092915050565b610b4c81610a1f565b82525050565b6000602082019050610b676000830184610b43565b92915050565b60008115159050919050565b610b8281610b6d565b82525050565b6000602082019050610b9d6000830184610b79565b92915050565b6000819050919050565b610bb681610ba3565b8114610bc157600080fd5b50565b600081359050610bd381610bad565b92915050565b600060208284031215610bef57610bee610ae5565b5b6000610bfd84828501610bc4565b91505092915050565b600082825260208201905092915050565b7f436c69656e74206d757374206e6f742062652072656769737465726564000000600082015250565b6000610c4d601d83610c06565b9150610c5882610c17565b602082019050919050565b60006020820190508181036000830152610c7c81610c40565b9050919050565b7f436c69656e742063616e6e6f7420726567697374657220747769636500000000600082015250565b6000610cb9601c83610c06565b9150610cc482610c83565b602082019050919050565b60006020820190508181036000830152610ce881610cac565b9050919050565b7f436c69656e74206d757374206265207265676973746572656400000000000000600082015250565b6000610d25601983610c06565b9150610d3082610cef565b602082019050919050565b60006020820190508181036000830152610d5481610d18565b9050919050565b7f4661696c65642052616e646f6d2052656769737472616e743a20436f756e742060008201527f6578636565647320616d6f756e74207265676973746572656400000000000000602082015250565b6000610db7603983610c06565b9150610dc282610d5b565b604082019050919050565b60006020820190508181036000830152610de681610daa565b9050919050565b7f4661696c65642052616e646f6d2052656769737472616e743a20436f756e742060008201527f65786365656473206d617820626c6f636b206c696d6974000000000000000000602082015250565b6000610e49603783610c06565b9150610e5482610ded565b604082019050919050565b60006020820190508181036000830152610e7881610e3c565b9050919050565b7f4e487b7100000000000000000000000000000000000000000000000000000000600052604160045260246000fd5b7f4e487b7100000000000000000000000000000000000000000000000000000000600052601160045260246000fd5b6000610ee882610ba3565b9150610ef383610ba3565b9250828203905081811115610f0b57610f0a610eae565b5b92915050565b6000819050919050565b6000819050919050565b610f36610f3182610f11565b610f1b565b82525050565b6000819050919050565b610f57610f5282610ba3565b610f3c565b82525050565b6000610f698286610f25565b602082019150610f798285610f46565b602082019150610f898284610f46565b602082019150819050949350505050565b7f4e487b7100000000000000000000000000000000000000000000000000000000600052601260045260246000fd5b6000610fd482610ba3565b9150610fdf83610ba3565b925082610fef57610fee610f9a565b5b828206905092915050565b7f4e487b7100000000000000000000000000000000000000000000000000000000600052603260045260246000fd5b600061103482610ba3565b91506000820361104757611046610eae565b5b60018203905091905056fea2646970667358221220d6987a6e65fd2e67ff654b8c47c59c3941f42ca3bb91f560c1945b66759a50b764736f6c634300081c0033",
  "linkReferences": {},
  "deployedLinkReferences": {}
}