{
  "_format": "hh-sol-artifact-1",
  "contractName": "Registration",
  "sourceName": "contracts/Registration.sol",
  "abi": [
    {
      "inputs": [],
      "stateMutability": "nonpayable",
      "type": "constructor"
    },
    {
      "inputs": [
        {
          "internalType": "address",
          "name": "client",
          "type": "address"
        }
      ],
      "name": "ban",
      "outputs": [],
      "stateMutability": "nonpayable",
      "type": "function"
    },
    {
      "inputs": [],
      "name": "getOwner",
      "outputs": [
        {
          "internalType": "address",
          "name": "",
          "type": "address"
        }
      ],
      "stateMutability": "view",
      "type": "function"
    },
    {
      "inputs": [
        {
          "internalType": "uint256",
          "name": "count",
          "type": "uint256"
        }
      ],
      "name": "getRandomRegistrant",
      "outputs": [
        {
          "internalType": "address[]",
          "name": "",
          "type": "address[]"
        }
      ],
      "stateMutability": "view",
      "type": "function"
    },
    {
      "inputs": [],
      "name": "getRegistrants",
      "outputs": [
        {
          "internalType": "address[]",
          "name": "",
          "type": "address[]"
        }
      ],
      "stateMutability": "view",
      "type": "function"
    },
    {
      "inputs": [
        {
          "internalType": "address",
          "name": "client",
          "type": "address"
        }
      ],
      "name": "isBanned",
      "outputs": [
        {
          "internalType": "bool",
          "name": "",
          "type": "bool"
        }
      ],
      "stateMutability": "view",
      "type": "function"
    },
    {
      "inputs": [
        {
          "internalType": "address",
          "name": "client",
          "type": "address"
        }
      ],
      "name": "isRegistered",
      "outputs": [
        {
          "internalType": "bool",
          "name": "",
          "type": "bool"
        }
      ],
      "stateMutability": "view",
      "type": "function"
    },
    {
      "inputs": [
        {
          "internalType": "address",
          "name": "client",
          "type": "address"
        }
      ],
      "name": "isValid",
      "outputs": [
        {
          "internalType": "bool",
          "name": "",
          "type": "bool"
        }
      ],
      "stateMutability": "view",
      "type": "function"
    },
    {
      "inputs": [
        {
          "internalType": "address",
          "name": "client",
          "type": "address"
        }
      ],
      "name": "register",
      "outputs": [],
      "stateMutability": "nonpayable",
      "type": "function"
    },
    {
      "inputs": [
        {
          "internalType": "address",
          "name": "client",
          "type": "address"
        }
      ],
      "name": "unregister",
      "outputs": [],
      "stateMutability": "nonpayable",
      "type": "function"
    }
  ],
  "bytecode": "0x608060405234801561001057600080fd5b50600380546001600160a01b03191633179055610845806100326000396000f3fe608060405234801561001057600080fd5b50600436106100935760003560e01c80638b1b925f116100665780638b1b925f146100f957806397c3ccd81461011c57806397f735d51461012f578063985a2f921461015b578063c3c5a5471461016e57600080fd5b8063052b2aa7146100985780632ec2c246146100b65780634420e486146100cb578063893d20e8146100de575b600080fd5b6100a061019a565b6040516100ad91906106d2565b60405180910390f35b6100c96100c436600461071f565b6101fc565b005b6100c96100d936600461071f565b61028a565b6003546040516001600160a01b0390911681526020016100ad565b61010c61010736600461071f565b610355565b60405190151581526020016100ad565b6100c961012a36600461071f565b61039c565b61010c61013d36600461071f565b6001600160a01b031660009081526002602052604090205460ff1690565b6100a061016936600461074f565b610428565b61010c61017c36600461071f565b6001600160a01b031660009081526001602052604090205460ff1690565b606060008054806020026020016040519081016040528092919081815260200182805480156101f257602002820191906000526020600020905b81546001600160a01b031681526001909101906020018083116101d4575b5050505050905090565b6001600160a01b03811660009081526001602052604090205460ff166102695760405162461bcd60e51b815260206004820152601d60248201527f436c69656e74206d757374206e6f74206265207265676973746572656400000060448201526064015b60405180910390fd5b6001600160a01b03166000908152600160205260409020805460ff19169055565b6001600160a01b03811660009081526001602052604090205460ff16156102f35760405162461bcd60e51b815260206004820152601c60248201527f436c69656e742063616e6e6f74207265676973746572207477696365000000006044820152606401610260565b6001600160a01b031660008181526001602081905260408220805460ff191682179055815490810182559080527f290decd9548b62a8d60345a988386fc84ba6bc95484008f6362f93160ef3e5630180546001600160a01b0319169091179055565b6001600160a01b03811660009081526001602052604081205460ff16801561039657506001600160a01b03821660009081526002602052604090205460ff16155b92915050565b6001600160a01b03811660009081526001602052604090205460ff166104045760405162461bcd60e51b815260206004820152601960248201527f436c69656e74206d7573742062652072656769737465726564000000000000006044820152606401610260565b6001600160a01b03166000908152600260205260409020805460ff19166001179055565b6000546060908211156104a35760405162461bcd60e51b815260206004820152603960248201527f4661696c65642052616e646f6d2052656769737472616e743a20436f756e742060448201527f6578636565647320616d6f756e742072656769737465726564000000000000006064820152608401610260565b610100821061051a5760405162461bcd60e51b815260206004820152603760248201527f4661696c65642052616e646f6d2052656769737472616e743a20436f756e742060448201527f65786365656473206d617820626c6f636b206c696d69740000000000000000006064820152608401610260565b600080546040805160208084028201810190925282815291839183018282801561056d57602002820191906000526020600020905b81546001600160a01b0316815260019091019060200180831161054f575b5050505050905060008367ffffffffffffffff81111561058f5761058f610768565b6040519080825280602002602001820160405280156105b8578160200160208202803683370190505b50825190915060005b858110156106c8576000826105d68343610794565b60408051914060208301524290820152606081018490526080016040516020818303038152906040528051906020012060001c61061391906107a7565b9050848181518110610627576106276107c9565b6020026020010151848381518110610641576106416107c9565b6001600160a01b039092166020928302919091019091015284610665600185610794565b81518110610675576106756107c9565b602002602001015185828151811061068f5761068f6107c9565b6001600160a01b0390921660209283029190910190910152826106b1816107df565b9350505080806106c0906107f6565b9150506105c1565b5090949350505050565b6020808252825182820181905260009190848201906040850190845b818110156107135783516001600160a01b0316835292840192918401916001016106ee565b50909695505050505050565b60006020828403121561073157600080fd5b81356001600160a01b038116811461074857600080fd5b9392505050565b60006020828403121561076157600080fd5b5035919050565b634e487b7160e01b600052604160045260246000fd5b634e487b7160e01b600052601160045260246000fd5b818103818111156103965761039661077e565b6000826107c457634e487b7160e01b600052601260045260246000fd5b500690565b634e487b7160e01b600052603260045260246000fd5b6000816107ee576107ee61077e565b506000190190565b6000600182016108085761080861077e565b506001019056fea2646970667358221220bdbef1cdf2f34f121e88ef63b023c225c7505f5b53fecfad553c61075564bab564736f6c63430008140033",
  "linkReferences": {},
  "deployedLinkReferences": {}
}