{
  "_format": "hh-sol-artifact-1",
  "contractName": "RoundControl",
  "sourceName": "contracts/RoundControl.sol",
  "abi": [
    {
      "inputs": [
        {
          "internalType": "string",
          "name": "_initialGlobalModelCid",
          "type": "string"
        },
        {
          "internalType": "address",
          "name": "_registrationContract",
          "type": "address"
        }
      ],
      "stateMutability": "nonpayable",
      "type": "constructor"
    },
    {
      "anonymous": false,
      "inputs": [
        {
          "indexed": false,
          "internalType": "uint256",
          "name": "roundId",
          "type": "uint256"
        }
      ],
      "name": "RoundEnded",
      "type": "event"
    },
    {
      "anonymous": false,
      "inputs": [
        {
          "indexed": false,
          "internalType": "uint256",
          "name": "roundId",
          "type": "uint256"
        }
      ],
      "name": "RoundStarted",
      "type": "event"
    },
    {
      "inputs": [],
      "name": "active",
      "outputs": [
        {
          "internalType": "bool",
          "name": "",
          "type": "bool"
        }
      ],
      "stateMutability": "view",
      "type": "function"
    },
    {
      "inputs": [
        {
          "internalType": "uint64",
          "name": "_noOfParticipants",
          "type": "uint64"
        }
      ],
      "name": "createRound",
      "outputs": [
        {
          "internalType": "uint256",
          "name": "",
          "type": "uint256"
        }
      ],
      "stateMutability": "nonpayable",
      "type": "function"
    },
    {
      "inputs": [],
      "name": "currentRoundId",
      "outputs": [
        {
          "internalType": "uint256",
          "name": "",
          "type": "uint256"
        }
      ],
      "stateMutability": "view",
      "type": "function"
    },
    {
      "inputs": [],
      "name": "endRound",
      "outputs": [],
      "stateMutability": "nonpayable",
      "type": "function"
    },
    {
      "inputs": [
        {
          "internalType": "uint256",
          "name": "_roundId",
          "type": "uint256"
        }
      ],
      "name": "getRound",
      "outputs": [
        {
          "internalType": "address",
          "name": "",
          "type": "address"
        }
      ],
      "stateMutability": "view",
      "type": "function"
    },
    {
      "inputs": [],
      "name": "numberOfRounds",
      "outputs": [
        {
          "internalType": "uint256",
          "name": "",
          "type": "uint256"
        }
      ],
      "stateMutability": "view",
      "type": "function"
    },
    {
      "inputs": [],
      "name": "owner",
      "outputs": [
        {
          "internalType": "address",
          "name": "",
          "type": "address"
        }
      ],
      "stateMutability": "view",
      "type": "function"
    },
    {
      "inputs": [
        {
          "internalType": "string",
          "name": "_initialGlobalModelCid",
          "type": "string"
        }
      ],
      "name": "setInitialGlobalModleCid",
      "outputs": [],
      "stateMutability": "nonpayable",
      "type": "function"
    },
    {
      "inputs": [
        {
          "internalType": "bool",
          "name": "_active",
          "type": "bool"
        }
      ],
      "name": "setRoundActive",
      "outputs": [],
      "stateMutability": "nonpayable",
      "type": "function"
    },
    {
      "inputs": [
        {
          "internalType": "uint64",
          "name": "_noOfParticipants",
          "type": "uint64"
        }
      ],
      "name": "startRound",
      "outputs": [
        {
          "internalType": "uint256",
          "name": "",
          "type": "uint256"
        }
      ],
      "stateMutability": "nonpayable",
      "type": "function"
    },
    {
      "inputs": [
        {
          "internalType": "string",
          "name": "cid",
          "type": "string"
        }
      ],
      "name": "submitParticipantCid",
      "outputs": [],
      "stateMutability": "nonpayable",
      "type": "function"
    }
  ],
  "bytecode": "0x60806040523480156200001157600080fd5b5060405162001ef438038062001ef48339810160408190526200003491620000b7565b60028054600080556001600160a81b031916610100330217905560036200005c83826200022e565b50600480546001600160a01b0319166001600160a01b039290921691909117905550620002fa565b634e487b7160e01b600052604160045260246000fd5b80516001600160a01b0381168114620000b257600080fd5b919050565b60008060408385031215620000cb57600080fd5b82516001600160401b0380821115620000e357600080fd5b818501915085601f830112620000f857600080fd5b8151818111156200010d576200010d62000084565b604051601f8201601f19908116603f0116810190838211818310171562000138576200013862000084565b816040528281526020935088848487010111156200015557600080fd5b600091505b828210156200017957848201840151818301850152908301906200015a565b6000848483010152809650505050620001948186016200009a565b925050509250929050565b600181811c90821680620001b457607f821691505b602082108103620001d557634e487b7160e01b600052602260045260246000fd5b50919050565b601f8211156200022957600081815260208120601f850160051c81016020861015620002045750805b601f850160051c820191505b81811015620002255782815560010162000210565b5050505b505050565b81516001600160401b038111156200024a576200024a62000084565b62000262816200025b84546200019f565b84620001db565b602080601f8311600181146200029a5760008415620002815750858301515b600019600386901b1c1916600185901b17855562000225565b600085815260208120601f198616915b82811015620002cb57888601518255948401946001909101908401620002aa565b5085821015620002ea5787850151600019600388901b60f8161c191681555b5050505050600190811b01905550565b611bea806200030a6000396000f3fe60806040523480156200001157600080fd5b5060043610620000b75760003560e01c80635bfe14f9116200007a5780635bfe14f9146200013f578063749aa2d914620001565780638da5cb5b14620001605780638f1327c014620001925780639cbe5efd14620001be578063b0a242e814620001c857600080fd5b806302fb0c5e14620000bc578063323777d414620000df5780633bde045f14620000f85780634136de121462000111578063512dec391462000128575b600080fd5b600254620000ca9060ff1681565b60405190151581526020015b60405180910390f35b620000f6620000f03660046200085b565b620001df565b005b6200010260015481565b604051908152602001620000d6565b6200010262000122366004620008e3565b620002a5565b620000f66200013936600462000916565b6200039f565b6200010262000150366004620008e3565b620003e4565b620000f662000693565b600254620001799061010090046001600160a01b031681565b6040516001600160a01b039091168152602001620000d6565b62000179620001a33660046200093a565b6000908152600560205260409020546001600160a01b031690565b6200010260005481565b620000f6620001d93660046200085b565b6200077f565b60025460ff16620002295760405162461bcd60e51b815260206004820152600f60248201526e139bc81858dd1a5d99481c9bdd5b99608a1b60448201526064015b60405180910390fd5b600080548152600560205260409081902054905160016241606760e01b031981526001600160a01b039091169063ffbe9f99906200026e9033908590600401620009a8565b600060405180830381600087803b1580156200028957600080fd5b505af11580156200029e573d6000803e3d6000fd5b5050505050565b60025460009061010090046001600160a01b03163314620002da5760405162461bcd60e51b81526004016200022090620009d6565b60025460ff1615620003405760405162461bcd60e51b815260206004820152602860248201527f4661696c65642053746172743a20526f756e642069732063757272656e746c796044820152672072756e6e696e6760c01b606482015260840162000220565b6200034b82620003e4565b506002805460ff191660011790556000546040517f33a701182892fd888ed152ca2ac23771a32e814469b7cd255965471e1af3a659916200038f9190815260200190565b60405180910390a1505060005490565b60025461010090046001600160a01b03163314620003d15760405162461bcd60e51b81526004016200022090620009d6565b6002805460ff1916911515919091179055565b60025460009061010090046001600160a01b03163314620004195760405162461bcd60e51b81526004016200022090620009d6565b60025460ff16156200047f5760405162461bcd60e51b815260206004820152602860248201527f4661696c6564204372656174653a20526f756e642069732043757272656e746c604482015267792061637469766560c01b606482015260840162000220565b6000805460048054604051634c2d17c960e11b815267ffffffffffffffff8716928101929092529192916001600160a01b03169063985a2f9290602401600060405180830381865afa158015620004da573d6000803e3d6000fd5b505050506040513d6000823e601f3d908101601f1916820160405262000504919081019062000a02565b9050816000036200058457600080546003836040516200052490620007d8565b620005329392919062000b4f565b604051809103906000f0801580156200054f573d6000803e3d6000fd5b5060008054815260056020526040902080546001600160a01b0319166001600160a01b0392909216919091179055506200068c565b600080546005826200059860018762000c15565b815260200190815260200160002060009054906101000a90046001600160a01b03166001600160a01b03166379dda9186040518163ffffffff1660e01b8152600401600060405180830381865afa158015620005f8573d6000803e3d6000fd5b505050506040513d6000823e601f3d908101601f1916820160405262000622919081019062000c31565b836040516200063190620007d8565b6200063f9392919062000cb1565b604051809103906000f0801580156200065c573d6000803e3d6000fd5b5060008054815260056020526040902080546001600160a01b0319166001600160a01b0392909216919091179055505b5092915050565b60025461010090046001600160a01b03163314620006c55760405162461bcd60e51b81526004016200022090620009d6565b60025460ff16620007335760405162461bcd60e51b815260206004820152603160248201527f4661696c656420656e643a204e6f2061637469766520726f756e642063757272604482015270656e746c7920696e2070726f677265737360781b606482015260840162000220565b6002805460ff191690556000546040519081527faa97d4a7b3afec5f55c25ca8593dde6929d4455fad650a16fa4334004293a6189060200160405180910390a16200077d620007c3565b565b60025461010090046001600160a01b03163314620007b15760405162461bcd60e51b81526004016200022090620009d6565b6003620007bf828262000d3d565b5050565b600054620007d390600162000e0a565b600055565b610d948062000e2183390190565b634e487b7160e01b600052604160045260246000fd5b604051601f8201601f1916810167ffffffffffffffff81118282101715620008285762000828620007e6565b604052919050565b600067ffffffffffffffff8211156200084d576200084d620007e6565b50601f01601f191660200190565b6000602082840312156200086e57600080fd5b813567ffffffffffffffff8111156200088657600080fd5b8201601f810184136200089857600080fd5b8035620008af620008a98262000830565b620007fc565b818152856020838501011115620008c557600080fd5b81602084016020830137600091810160200191909152949350505050565b600060208284031215620008f657600080fd5b813567ffffffffffffffff811681146200090f57600080fd5b9392505050565b6000602082840312156200092957600080fd5b813580151581146200090f57600080fd5b6000602082840312156200094d57600080fd5b5035919050565b60005b838110156200097157818101518382015260200162000957565b50506000910152565b600081518084526200099481602086016020860162000954565b601f01601f19169290920160200192915050565b6001600160a01b0383168152604060208201819052600090620009ce908301846200097a565b949350505050565b6020808252601290820152712737ba1031b7b73a3930b1ba1037bbb732b960711b604082015260600190565b6000602080838503121562000a1657600080fd5b825167ffffffffffffffff8082111562000a2f57600080fd5b818501915085601f83011262000a4457600080fd5b81518181111562000a595762000a59620007e6565b8060051b915062000a6c848301620007fc565b818152918301840191848101908884111562000a8757600080fd5b938501935b8385101562000ac157845192506001600160a01b038316831462000ab05760008081fd5b828252938501939085019062000a8c565b98975050505050505050565b600181811c9082168062000ae257607f821691505b60208210810362000b0357634e487b7160e01b600052602260045260246000fd5b50919050565b600081518084526020808501945080840160005b8381101562000b445781516001600160a01b03168752958201959082019060010162000b1d565b509495945050505050565b838152600060206060818401526000855462000b6b8162000acd565b806060870152608060018084166000811462000b90576001811462000bab5762000bdb565b60ff1985168984015283151560051b89018301955062000bdb565b8a6000528660002060005b8581101562000bd35781548b820186015290830190880162000bb6565b8a0184019650505b5050505050838103604085015262000bf4818662000b09565b979650505050505050565b634e487b7160e01b600052601160045260246000fd5b8181038181111562000c2b5762000c2b62000bff565b92915050565b60006020828403121562000c4457600080fd5b815167ffffffffffffffff81111562000c5c57600080fd5b8201601f8101841362000c6e57600080fd5b805162000c7f620008a98262000830565b81815285602083850101111562000c9557600080fd5b62000ca882602083016020860162000954565b95945050505050565b83815260606020820152600062000ccc60608301856200097a565b828103604084015262000ce0818562000b09565b9695505050505050565b601f82111562000d3857600081815260208120601f850160051c8101602086101562000d135750805b601f850160051c820191505b8181101562000d345782815560010162000d1f565b5050505b505050565b815167ffffffffffffffff81111562000d5a5762000d5a620007e6565b62000d728162000d6b845462000acd565b8462000cea565b602080601f83116001811462000daa576000841562000d915750858301515b600019600386901b1c1916600185901b17855562000d34565b600085815260208120601f198616915b8281101562000ddb5788860151825594840194600190910190840162000dba565b508582101562000dfa5787850151600019600388901b60f8161c191681555b5050505050600190811b01905550565b8082018082111562000c2b5762000c2b62000bff56fe60806040523480156200001157600080fd5b5060405162000d9438038062000d94833981016040819052620000349162000244565b60008390556001620000478382620003b8565b5080516200005d906003906020840190620000db565b5060005b600354811015620000d1576001600460006003848154811062000088576200008862000484565b6000918252602080832091909101546001600160a01b031683528201929092526040019020805460ff191691151591909117905580620000c8816200049a565b91505062000061565b50505050620004c2565b82805482825590600052602060002090810192821562000133579160200282015b828111156200013357825182546001600160a01b0319166001600160a01b03909116178255602090920191600190910190620000fc565b506200014192915062000145565b5090565b5b8082111562000141576000815560010162000146565b634e487b7160e01b600052604160045260246000fd5b604051601f8201601f191681016001600160401b03811182821017156200019d576200019d6200015c565b604052919050565b600082601f830112620001b757600080fd5b815160206001600160401b03821115620001d557620001d56200015c565b8160051b620001e682820162000172565b92835284810182019282810190878511156200020157600080fd5b83870192505b84831015620002395782516001600160a01b0381168114620002295760008081fd5b8252918301919083019062000207565b979650505050505050565b6000806000606084860312156200025a57600080fd5b8351602080860151919450906001600160401b03808211156200027c57600080fd5b818701915087601f8301126200029157600080fd5b815181811115620002a657620002a66200015c565b620002ba601f8201601f1916850162000172565b8181528985838601011115620002cf57600080fd5b60005b82811015620002ef578481018601518282018701528501620002d2565b506000918101909401526040870151929450808311156200030f57600080fd5b50506200031f86828701620001a5565b9150509250925092565b600181811c908216806200033e57607f821691505b6020821081036200035f57634e487b7160e01b600052602260045260246000fd5b50919050565b601f821115620003b357600081815260208120601f850160051c810160208610156200038e5750805b601f850160051c820191505b81811015620003af578281556001016200039a565b5050505b505050565b81516001600160401b03811115620003d457620003d46200015c565b620003ec81620003e5845462000329565b8462000365565b602080601f8311600181146200042457600084156200040b5750858301515b600019600386901b1c1916600185901b178555620003af565b600085815260208120601f198616915b82811015620004555788860151825594840194600190910190840162000434565b5085821015620004745787850151600019600388901b60f8161c191681555b5050505050600190811b01905550565b634e487b7160e01b600052603260045260246000fd5b600060018201620004bb57634e487b7160e01b600052601160045260246000fd5b5060010190565b6108c280620004d26000396000f3fe608060405234801561001057600080fd5b50600436106100935760003560e01c80638cd221c9116100665780638cd221c9146100e8578063929066f5146100ff578063b23ce5ac14610132578063c3c5a54714610147578063ffbe9f991461017357600080fd5b806330a29d39146100985780634ffb5f7c146100b65780635aa68ac0146100cb57806379dda918146100e0575b600080fd5b6100a0610186565b6040516100ad91906104df565b60405180910390f35b6100be6102e4565b6040516100ad9190610541565b6100d3610372565b6040516100ad919061055b565b6100be6103d4565b6100f160005481565b6040519081526020016100ad565b61012261010d3660046105c4565b60046020526000908152604090205460ff1681565b60405190151581526020016100ad565b610145610140366004610682565b6103e1565b005b6101226101553660046105c4565b6001600160a01b031660009081526004602052604090205460ff1690565b6101456101813660046106bf565b6103f1565b60035460609060009067ffffffffffffffff8111156101a7576101a76105df565b6040519080825280602002602001820160405280156101da57816020015b60608152602001906001900390816101c55790505b50905060005b6003548110156102de5760056000600383815481106102015761020161070d565b60009182526020808320909101546001600160a01b031683528201929092526040019020805461023090610723565b80601f016020809104026020016040519081016040528092919081815260200182805461025c90610723565b80156102a95780601f1061027e576101008083540402835291602001916102a9565b820191906000526020600020905b81548152906001019060200180831161028c57829003601f168201915b50505050508282815181106102c0576102c061070d565b602002602001018190525080806102d690610757565b9150506101e0565b50919050565b600180546102f190610723565b80601f016020809104026020016040519081016040528092919081815260200182805461031d90610723565b801561036a5780601f1061033f5761010080835404028352916020019161036a565b820191906000526020600020905b81548152906001019060200180831161034d57829003601f168201915b505050505081565b606060038054806020026020016040519081016040528092919081815260200182805480156103ca57602002820191906000526020600020905b81546001600160a01b031681526001909101906020018083116103ac575b5050505050905090565b600280546102f190610723565b60026103ed82826107cc565b5050565b6001600160a01b03821660009081526004602052604090205460ff166104725760405162461bcd60e51b815260206004820152602c60248201527f4661696c6564205375626d69743a207061727469636970616e74206973206e6f60448201526b1d081c9959da5cdd195c995960a21b606482015260840160405180910390fd5b6001600160a01b038216600090815260056020526040902061049482826107cc565b505050565b6000815180845260005b818110156104bf576020818501810151868301820152016104a3565b506000602082860101526020601f19601f83011685010191505092915050565b6000602080830181845280855180835260408601915060408160051b870101925083870160005b8281101561053457603f19888603018452610522858351610499565b94509285019290850190600101610506565b5092979650505050505050565b6020815260006105546020830184610499565b9392505050565b6020808252825182820181905260009190848201906040850190845b8181101561059c5783516001600160a01b031683529284019291840191600101610577565b50909695505050505050565b80356001600160a01b03811681146105bf57600080fd5b919050565b6000602082840312156105d657600080fd5b610554826105a8565b634e487b7160e01b600052604160045260246000fd5b600082601f83011261060657600080fd5b813567ffffffffffffffff80821115610621576106216105df565b604051601f8301601f19908116603f01168101908282118183101715610649576106496105df565b8160405283815286602085880101111561066257600080fd5b836020870160208301376000602085830101528094505050505092915050565b60006020828403121561069457600080fd5b813567ffffffffffffffff8111156106ab57600080fd5b6106b7848285016105f5565b949350505050565b600080604083850312156106d257600080fd5b6106db836105a8565b9150602083013567ffffffffffffffff8111156106f757600080fd5b610703858286016105f5565b9150509250929050565b634e487b7160e01b600052603260045260246000fd5b600181811c9082168061073757607f821691505b6020821081036102de57634e487b7160e01b600052602260045260246000fd5b60006001820161077757634e487b7160e01b600052601160045260246000fd5b5060010190565b601f82111561049457600081815260208120601f850160051c810160208610156107a55750805b601f850160051c820191505b818110156107c4578281556001016107b1565b505050505050565b815167ffffffffffffffff8111156107e6576107e66105df565b6107fa816107f48454610723565b8461077e565b602080601f83116001811461082f57600084156108175750858301515b600019600386901b1c1916600185901b1785556107c4565b600085815260208120601f198616915b8281101561085e5788860151825594840194600190910190840161083f565b508582101561087c5787850151600019600388901b60f8161c191681555b5050505050600190811b0190555056fea2646970667358221220a61de3cec7ed295b4f2b595ce44f1691c3d35822632395cb5b4eb881871a683f64736f6c63430008140033a2646970667358221220d2b5a31b91112cc09a01a84deaeddd13a990c729ffe858fd04c8d0a200d0be0964736f6c63430008140033",
  "linkReferences": {},
  "deployedLinkReferences": {}
}