{
  "_format": "hh-sol-artifact-1",
  "contractName": "Round",
  "sourceName": "contracts/RoundControl.sol",
  "abi": [
    {
      "inputs": [
        {
          "internalType": "uint256",
          "name": "_roundId",
          "type": "uint256"
        },
        {
          "internalType": "string",
          "name": "_globalModelCid",
          "type": "string"
        },
        {
          "internalType": "address[]",
          "name": "_participants",
          "type": "address[]"
        }
      ],
      "stateMutability": "nonpayable",
      "type": "constructor"
    },
    {
      "inputs": [
        {
          "internalType": "string",
          "name": "_nextRoundCid",
          "type": "string"
        }
      ],
      "name": "Aggregate",
      "outputs": [],
      "stateMutability": "nonpayable",
      "type": "function"
    },
    {
      "inputs": [],
      "name": "getCids",
      "outputs": [
        {
          "internalType": "string[]",
          "name": "",
          "type": "string[]"
        }
      ],
      "stateMutability": "view",
      "type": "function"
    },
    {
      "inputs": [],
      "name": "getParticipants",
      "outputs": [
        {
          "internalType": "address[]",
          "name": "",
          "type": "address[]"
        }
      ],
      "stateMutability": "view",
      "type": "function"
    },
    {
      "inputs": [],
      "name": "globalModelCid",
      "outputs": [
        {
          "internalType": "string",
          "name": "",
          "type": "string"
        }
      ],
      "stateMutability": "view",
      "type": "function"
    },
    {
      "inputs": [
        {
          "internalType": "address",
          "name": "",
          "type": "address"
        }
      ],
      "name": "isParticipant",
      "outputs": [
        {
          "internalType": "bool",
          "name": "",
          "type": "bool"
        }
      ],
      "stateMutability": "view",
      "type": "function"
    },
    {
      "inputs": [
        {
          "internalType": "address",
          "name": "participant",
          "type": "address"
        }
      ],
      "name": "isRegistered",
      "outputs": [
        {
          "internalType": "bool",
          "name": "",
          "type": "bool"
        }
      ],
      "stateMutability": "view",
      "type": "function"
    },
    {
      "inputs": [],
      "name": "nextRoundCid",
      "outputs": [
        {
          "internalType": "string",
          "name": "",
          "type": "string"
        }
      ],
      "stateMutability": "view",
      "type": "function"
    },
    {
      "inputs": [],
      "name": "roundId",
      "outputs": [
        {
          "internalType": "uint256",
          "name": "",
          "type": "uint256"
        }
      ],
      "stateMutability": "view",
      "type": "function"
    },
    {
      "inputs": [
        {
          "internalType": "address",
          "name": "participant",
          "type": "address"
        },
        {
          "internalType": "string",
          "name": "cid",
          "type": "string"
        }
      ],
      "name": "submitModelCid",
      "outputs": [],
      "stateMutability": "nonpayable",
      "type": "function"
    }
  ],
  "bytecode": "0x608060405234801561001057600080fd5b5060405161183c38038061183c83398181016040528101906100329190610494565b8260008190555081600190816100489190610736565b50806003908051906020019061005f92919061011c565b5060005b600380549050811015610113576001600460006003848154811061008a57610089610808565b5b9060005260206000200160009054906101000a900473ffffffffffffffffffffffffffffffffffffffff1673ffffffffffffffffffffffffffffffffffffffff1673ffffffffffffffffffffffffffffffffffffffff16815260200190815260200160002060006101000a81548160ff0219169083151502179055508080600101915050610063565b50505050610837565b828054828255906000526020600020908101928215610195579160200282015b828111156101945782518260006101000a81548173ffffffffffffffffffffffffffffffffffffffff021916908373ffffffffffffffffffffffffffffffffffffffff1602179055509160200191906001019061013c565b5b5090506101a291906101a6565b5090565b5b808211156101bf5760008160009055506001016101a7565b5090565b6000604051905090565b600080fd5b600080fd5b6000819050919050565b6101ea816101d7565b81146101f557600080fd5b50565b600081519050610207816101e1565b92915050565b600080fd5b600080fd5b6000601f19601f8301169050919050565b7f4e487b7100000000000000000000000000000000000000000000000000000000600052604160045260246000fd5b61026082610217565b810181811067ffffffffffffffff8211171561027f5761027e610228565b5b80604052505050565b60006102926101c3565b905061029e8282610257565b919050565b600067ffffffffffffffff8211156102be576102bd610228565b5b6102c782610217565b9050602081019050919050565b60005b838110156102f25780820151818401526020810190506102d7565b60008484015250505050565b600061031161030c846102a3565b610288565b90508281526020810184848401111561032d5761032c610212565b5b6103388482856102d4565b509392505050565b600082601f8301126103555761035461020d565b5b81516103658482602086016102fe565b91505092915050565b600067ffffffffffffffff82111561038957610388610228565b5b602082029050602081019050919050565b600080fd5b600073ffffffffffffffffffffffffffffffffffffffff82169050919050565b60006103ca8261039f565b9050919050565b6103da816103bf565b81146103e557600080fd5b50565b6000815190506103f7816103d1565b92915050565b600061041061040b8461036e565b610288565b905080838252602082019050602084028301858111156104335761043261039a565b5b835b8181101561045c578061044888826103e8565b845260208401935050602081019050610435565b5050509392505050565b600082601f83011261047b5761047a61020d565b5b815161048b8482602086016103fd565b91505092915050565b6000806000606084860312156104ad576104ac6101cd565b5b60006104bb868287016101f8565b935050602084015167ffffffffffffffff8111156104dc576104db6101d2565b5b6104e886828701610340565b925050604084015167ffffffffffffffff811115610509576105086101d2565b5b61051586828701610466565b9150509250925092565b600081519050919050565b7f4e487b7100000000000000000000000000000000000000000000000000000000600052602260045260246000fd5b6000600282049050600182168061057157607f821691505b6020821081036105845761058361052a565b5b50919050565b60008190508160005260206000209050919050565b60006020601f8301049050919050565b600082821b905092915050565b6000600883026105ec7fffffffffffffffffffffffffffffffffffffffffffffffffffffffffffffffff826105af565b6105f686836105af565b95508019841693508086168417925050509392505050565b6000819050919050565b600061063361062e610629846101d7565b61060e565b6101d7565b9050919050565b6000819050919050565b61064d83610618565b6106616106598261063a565b8484546105bc565b825550505050565b600090565b610676610669565b610681818484610644565b505050565b5b818110156106a55761069a60008261066e565b600181019050610687565b5050565b601f8211156106ea576106bb8161058a565b6106c48461059f565b810160208510156106d3578190505b6106e76106df8561059f565b830182610686565b50505b505050565b600082821c905092915050565b600061070d600019846008026106ef565b1980831691505092915050565b600061072683836106fc565b9150826002028217905092915050565b61073f8261051f565b67ffffffffffffffff81111561075857610757610228565b5b6107628254610559565b61076d8282856106a9565b600060209050601f8311600181146107a0576000841561078e578287015190505b610798858261071a565b865550610800565b601f1984166107ae8661058a565b60005b828110156107d6578489015182556001820191506020850194506020810190506107b1565b868310156107f357848901516107ef601f8916826106fc565b8355505b6001600288020188555050505b505050505050565b7f4e487b7100000000000000000000000000000000000000000000000000000000600052603260045260246000fd5b610ff6806108466000396000f3fe608060405234801561001057600080fd5b50600436106100935760003560e01c80638cd221c9116100665780638cd221c914610110578063929066f51461012e578063b23ce5ac1461015e578063c3c5a5471461017a578063ffbe9f99146101aa57610093565b806330a29d39146100985780634ffb5f7c146100b65780635aa68ac0146100d457806379dda918146100f2575b600080fd5b6100a06101c6565b6040516100ad91906107d0565b60405180910390f35b6100be610368565b6040516100cb919061083c565b60405180910390f35b6100dc6103f6565b6040516100e9919061094e565b60405180910390f35b6100fa610484565b604051610107919061083c565b60405180910390f35b610118610512565b6040516101259190610989565b60405180910390f35b610148600480360381019061014391906109e4565b610518565b6040516101559190610a2c565b60405180910390f35b61017860048036038101906101739190610b7c565b610538565b005b610194600480360381019061018f91906109e4565b61054b565b6040516101a19190610a2c565b60405180910390f35b6101c460048036038101906101bf9190610bc5565b6105a1565b005b6060600060038054905067ffffffffffffffff8111156101e9576101e8610a51565b5b60405190808252806020026020018201604052801561021c57816020015b60608152602001906001900390816102075790505b50905060005b60038054905081101561036057600560006003838154811061024757610246610c21565b5b9060005260206000200160009054906101000a900473ffffffffffffffffffffffffffffffffffffffff1673ffffffffffffffffffffffffffffffffffffffff1673ffffffffffffffffffffffffffffffffffffffff16815260200190815260200160002080546102b790610c7f565b80601f01602080910402602001604051908101604052809291908181526020018280546102e390610c7f565b80156103305780601f1061030557610100808354040283529160200191610330565b820191906000526020600020905b81548152906001019060200180831161031357829003601f168201915b505050505082828151811061034857610347610c21565b5b60200260200101819052508080600101915050610222565b508091505090565b6001805461037590610c7f565b80601f01602080910402602001604051908101604052809291908181526020018280546103a190610c7f565b80156103ee5780601f106103c3576101008083540402835291602001916103ee565b820191906000526020600020905b8154815290600101906020018083116103d157829003601f168201915b505050505081565b6060600380548060200260200160405190810160405280929190818152602001828054801561047a57602002820191906000526020600020905b8160009054906101000a900473ffffffffffffffffffffffffffffffffffffffff1673ffffffffffffffffffffffffffffffffffffffff1681526020019060010190808311610430575b5050505050905090565b6002805461049190610c7f565b80601f01602080910402602001604051908101604052809291908181526020018280546104bd90610c7f565b801561050a5780601f106104df5761010080835404028352916020019161050a565b820191906000526020600020905b8154815290600101906020018083116104ed57829003601f168201915b505050505081565b60005481565b60046020528060005260406000206000915054906101000a900460ff1681565b80600290816105479190610e5c565b5050565b6000600460008373ffffffffffffffffffffffffffffffffffffffff1673ffffffffffffffffffffffffffffffffffffffff16815260200190815260200160002060009054906101000a900460ff169050919050565b600460008373ffffffffffffffffffffffffffffffffffffffff1673ffffffffffffffffffffffffffffffffffffffff16815260200190815260200160002060009054906101000a900460ff1661062d576040517f08c379a000000000000000000000000000000000000000000000000000000000815260040161062490610fa0565b60405180910390fd5b80600560008473ffffffffffffffffffffffffffffffffffffffff1673ffffffffffffffffffffffffffffffffffffffff16815260200190815260200160002090816106799190610e5c565b505050565b600081519050919050565b600082825260208201905092915050565b6000819050602082019050919050565b600081519050919050565b600082825260208201905092915050565b60005b838110156106e45780820151818401526020810190506106c9565b60008484015250505050565b6000601f19601f8301169050919050565b600061070c826106aa565b61071681856106b5565b93506107268185602086016106c6565b61072f816106f0565b840191505092915050565b60006107468383610701565b905092915050565b6000602082019050919050565b60006107668261067e565b6107708185610689565b9350836020820285016107828561069a565b8060005b858110156107be578484038952815161079f858261073a565b94506107aa8361074e565b925060208a01995050600181019050610786565b50829750879550505050505092915050565b600060208201905081810360008301526107ea818461075b565b905092915050565b600082825260208201905092915050565b600061080e826106aa565b61081881856107f2565b93506108288185602086016106c6565b610831816106f0565b840191505092915050565b600060208201905081810360008301526108568184610803565b905092915050565b600081519050919050565b600082825260208201905092915050565b6000819050602082019050919050565b600073ffffffffffffffffffffffffffffffffffffffff82169050919050565b60006108b58261088a565b9050919050565b6108c5816108aa565b82525050565b60006108d783836108bc565b60208301905092915050565b6000602082019050919050565b60006108fb8261085e565b6109058185610869565b93506109108361087a565b8060005b8381101561094157815161092888826108cb565b9750610933836108e3565b925050600181019050610914565b5085935050505092915050565b6000602082019050818103600083015261096881846108f0565b905092915050565b6000819050919050565b61098381610970565b82525050565b600060208201905061099e600083018461097a565b92915050565b6000604051905090565b600080fd5b600080fd5b6109c1816108aa565b81146109cc57600080fd5b50565b6000813590506109de816109b8565b92915050565b6000602082840312156109fa576109f96109ae565b5b6000610a08848285016109cf565b91505092915050565b60008115159050919050565b610a2681610a11565b82525050565b6000602082019050610a416000830184610a1d565b92915050565b600080fd5b600080fd5b7f4e487b7100000000000000000000000000000000000000000000000000000000600052604160045260246000fd5b610a89826106f0565b810181811067ffffffffffffffff82111715610aa857610aa7610a51565b5b80604052505050565b6000610abb6109a4565b9050610ac78282610a80565b919050565b600067ffffffffffffffff821115610ae757610ae6610a51565b5b610af0826106f0565b9050602081019050919050565b82818337600083830152505050565b6000610b1f610b1a84610acc565b610ab1565b905082815260208101848484011115610b3b57610b3a610a4c565b5b610b46848285610afd565b509392505050565b600082601f830112610b6357610b62610a47565b5b8135610b73848260208601610b0c565b91505092915050565b600060208284031215610b9257610b916109ae565b5b600082013567ffffffffffffffff811115610bb057610baf6109b3565b5b610bbc84828501610b4e565b91505092915050565b60008060408385031215610bdc57610bdb6109ae565b5b6000610bea858286016109cf565b925050602083013567ffffffffffffffff811115610c0b57610c0a6109b3565b5b610c1785828601610b4e565b9150509250929050565b7f4e487b7100000000000000000000000000000000000000000000000000000000600052603260045260246000fd5b7f4e487b7100000000000000000000000000000000000000000000000000000000600052602260045260246000fd5b60006002820490506001821680610c9757607f821691505b602082108103610caa57610ca9610c50565b5b50919050565b60008190508160005260206000209050919050565b60006020601f8301049050919050565b600082821b905092915050565b600060088302610d127fffffffffffffffffffffffffffffffffffffffffffffffffffffffffffffffff82610cd5565b610d1c8683610cd5565b95508019841693508086168417925050509392505050565b6000819050919050565b6000610d59610d54610d4f84610970565b610d34565b610970565b9050919050565b6000819050919050565b610d7383610d3e565b610d87610d7f82610d60565b848454610ce2565b825550505050565b600090565b610d9c610d8f565b610da7818484610d6a565b505050565b5b81811015610dcb57610dc0600082610d94565b600181019050610dad565b5050565b601f821115610e1057610de181610cb0565b610dea84610cc5565b81016020851015610df9578190505b610e0d610e0585610cc5565b830182610dac565b50505b505050565b600082821c905092915050565b6000610e3360001984600802610e15565b1980831691505092915050565b6000610e4c8383610e22565b9150826002028217905092915050565b610e65826106aa565b67ffffffffffffffff811115610e7e57610e7d610a51565b5b610e888254610c7f565b610e93828285610dcf565b600060209050601f831160018114610ec65760008415610eb4578287015190505b610ebe8582610e40565b865550610f26565b601f198416610ed486610cb0565b60005b82811015610efc57848901518255600182019150602085019450602081019050610ed7565b86831015610f195784890151610f15601f891682610e22565b8355505b6001600288020188555050505b505050505050565b7f4661696c6564205375626d69743a207061727469636970616e74206973206e6f60008201527f7420726567697374657265640000000000000000000000000000000000000000602082015250565b6000610f8a602c836107f2565b9150610f9582610f2e565b604082019050919050565b60006020820190508181036000830152610fb981610f7d565b905091905056fea26469706673582212207202537ef15de4bffb9eeb2c8912bc3e957d27d927f66e4769c5af1e772441c864736f6c634300081c0033",
  "linkReferences": {},
  "deployedLinkReferences": {}
}