{
  "_format": "hh-sol-artifact-1",
  "contractName": "RoundControl",
  "sourceName": "contracts/RoundControl.sol",
  "abi": [
    {
      "inputs": [
        {
          "internalType": "string",
          "name": "_initialGlobalModelCid",
          "type": "string"
        },
        {
          "internalType": "address",
          "name": "_registrationContract",
          "type": "address"
        }
      ],
      "stateMutability": "nonpayable",
      "type": "constructor"
    },
    {
      "anonymous": false,
      "inputs": [
        {
          "indexed": false,
          "internalType": "uint256",
          "name": "roundId",
          "type": "uint256"
        },
        {
          "indexed": false,
          "internalType": "address",
          "name": "roundAddress",
          "type": "address"
        }
      ],
      "name": "RoundEnded",
      "type": "event"
    },
    {
      "anonymous": false,
      "inputs": [
        {
          "indexed": false,
          "internalType": "uint256",
          "name": "roundId",
          "type": "uint256"
        },
        {
          "indexed": false,
          "internalType": "address",
          "name": "roundAddress",
          "type": "address"
        }
      ],
      "name": "RoundStarted",
      "type": "event"
    },
    {
      "inputs": [],
      "name": "active",
      "outputs": [
        {
          "internalType": "bool",
          "name": "",
          "type": "bool"
        }
      ],
      "stateMutability": "view",
      "type": "function"
    },
    {
      "inputs": [
        {
          "internalType": "uint64",
          "name": "_noOfParticipants",
          "type": "uint64"
        }
      ],
      "name": "createRound",
      "outputs": [
        {
          "internalType": "address",
          "name": "",
          "type": "address"
        }
      ],
      "stateMutability": "nonpayable",
      "type": "function"
    },
    {
      "inputs": [],
      "name": "currentRoundId",
      "outputs": [
        {
          "internalType": "uint256",
          "name": "",
          "type": "uint256"
        }
      ],
      "stateMutability": "view",
      "type": "function"
    },
    {
      "inputs": [
        {
          "internalType": "uint256",
          "name": "_accuracy",
          "type": "uint256"
        },
        {
          "internalType": "uint256",
          "name": "_f1_score",
          "type": "uint256"
        },
        {
          "internalType": "uint256",
          "name": "_recall",
          "type": "uint256"
        },
        {
          "internalType": "uint256",
          "name": "_precision",
          "type": "uint256"
        },
        {
          "internalType": "string",
          "name": "_nextRoundCid",
          "type": "string"
        }
      ],
      "name": "endRound",
      "outputs": [],
      "stateMutability": "nonpayable",
      "type": "function"
    },
    {
      "inputs": [
        {
          "internalType": "uint256",
          "name": "_roundId",
          "type": "uint256"
        }
      ],
      "name": "getRound",
      "outputs": [
        {
          "internalType": "address",
          "name": "",
          "type": "address"
        }
      ],
      "stateMutability": "view",
      "type": "function"
    },
    {
      "inputs": [],
      "name": "noOfParticipants",
      "outputs": [
        {
          "internalType": "uint64",
          "name": "",
          "type": "uint64"
        }
      ],
      "stateMutability": "view",
      "type": "function"
    },
    {
      "inputs": [],
      "name": "numberOfRounds",
      "outputs": [
        {
          "internalType": "uint256",
          "name": "",
          "type": "uint256"
        }
      ],
      "stateMutability": "view",
      "type": "function"
    },
    {
      "inputs": [],
      "name": "owner",
      "outputs": [
        {
          "internalType": "address",
          "name": "",
          "type": "address"
        }
      ],
      "stateMutability": "view",
      "type": "function"
    },
    {
      "inputs": [
        {
          "internalType": "string",
          "name": "_initialGlobalModelCid",
          "type": "string"
        }
      ],
      "name": "setInitialGlobalModleCid",
      "outputs": [],
      "stateMutability": "nonpayable",
      "type": "function"
    },
    {
      "inputs": [
        {
          "internalType": "bool",
          "name": "_active",
          "type": "bool"
        }
      ],
      "name": "setRoundActive",
      "outputs": [],
      "stateMutability": "nonpayable",
      "type": "function"
    },
    {
      "inputs": [
        {
          "internalType": "uint64",
          "name": "_noOfParticipants",
          "type": "uint64"
        }
      ],
      "name": "startRound",
      "outputs": [
        {
          "internalType": "address",
          "name": "",
          "type": "address"
        }
      ],
      "stateMutability": "nonpayable",
      "type": "function"
    }
  ],
  "bytecode": "0x60806040523480156200001157600080fd5b5060405162002400380380620024008339810160408190526200003491620000c2565b6002805460008055600160401b600160e81b03191633690100000000000000000002179055600362000067838262000239565b50600480546001600160a01b0319166001600160a01b03929092169190911790555062000305565b634e487b7160e01b600052604160045260246000fd5b80516001600160a01b0381168114620000bd57600080fd5b919050565b60008060408385031215620000d657600080fd5b82516001600160401b0380821115620000ee57600080fd5b818501915085601f8301126200010357600080fd5b8151818111156200011857620001186200008f565b604051601f8201601f19908116603f011681019083821181831017156200014357620001436200008f565b816040528281526020935088848487010111156200016057600080fd5b600091505b8282101562000184578482018401518183018501529083019062000165565b60008484830101528096505050506200019f818601620000a5565b925050509250929050565b600181811c90821680620001bf57607f821691505b602082108103620001e057634e487b7160e01b600052602260045260246000fd5b50919050565b601f8211156200023457600081815260208120601f850160051c810160208610156200020f5750805b601f850160051c820191505b8181101562000230578281556001016200021b565b5050505b505050565b81516001600160401b038111156200025557620002556200008f565b6200026d81620002668454620001aa565b84620001e6565b602080601f831160018114620002a557600084156200028c5750858301515b600019600386901b1c1916600185901b17855562000230565b600085815260208120601f198616915b82811015620002d657888601518255948401946001909101908401620002b5565b5085821015620002f55787850151600019600388901b60f8161c191681555b5050505050600190811b01905550565b6120eb80620003156000396000f3fe60806040523480156200001157600080fd5b5060043610620000b75760003560e01c80635bfe14f9116200007a5780635bfe14f914620001755780636cb6cfb3146200018c5780638da5cb5b14620001a35780638f1327c014620001be5780639cbe5efd14620001ea578063b0a242e814620001f457600080fd5b806302fb0c5e14620000bc5780630872629614620000e65780633bde045f14620001135780634136de12146200012c578063512dec39146200015c575b600080fd5b600254620000d190600160401b900460ff1681565b60405190151581526020015b60405180910390f35b600254620000fa906001600160401b031681565b6040516001600160401b039091168152602001620000dd565b6200011d60015481565b604051908152602001620000dd565b620001436200013d36600462000884565b6200020b565b6040516001600160a01b039091168152602001620000dd565b620001736200016d366004620008b6565b62000341565b005b620001436200018636600462000884565b62000393565b620001736200019d366004620009a9565b6200066e565b6002546200014390600160481b90046001600160a01b031681565b62000143620001cf36600462000a10565b6000908152600560205260409020546001600160a01b031690565b6200011d60005481565b620001736200020536600462000a2a565b62000803565b600254600090600160481b90046001600160a01b031633146200024b5760405162461bcd60e51b8152600401620002429062000a6a565b60405180910390fd5b600254600160401b900460ff1615620002b85760405162461bcd60e51b815260206004820152602860248201527f4661696c65642053746172743a20526f756e642069732063757272656e746c796044820152672072756e6e696e6760c01b606482015260840162000242565b6002805467ffffffffffffffff19166001600160401b0384161790556000620002e18362000393565b6002805460ff60401b1916600160401b179055600054604080519182526001600160a01b03831660208301529192507ff273f67b85d8a5a1f4a4fcd374395f0c2e76be79f5c8e8bf46d30fd8f392a5a6910160405180910390a192915050565b600254600160481b90046001600160a01b03163314620003755760405162461bcd60e51b8152600401620002429062000a6a565b60028054911515600160401b0260ff60401b19909216919091179055565b600254600090600160481b90046001600160a01b03163314620003ca5760405162461bcd60e51b8152600401620002429062000a6a565b600254600160401b900460ff1615620004375760405162461bcd60e51b815260206004820152602860248201527f4661696c6564204372656174653a20526f756e642069732043757272656e746c604482015267792061637469766560c01b606482015260840162000242565b6000805460048054604051634c2d17c960e11b81526001600160401b038716928101929092529192916001600160a01b03169063985a2f9290602401600060405180830381865afa15801562000491573d6000803e3d6000fd5b505050506040513d6000823e601f3d908101601f19168201604052620004bb919081019062000a96565b9050816000036200053b5760008054600383604051620004db9062000876565b620004e99392919062000be2565b604051809103906000f08015801562000506573d6000803e3d6000fd5b5060008054815260056020526040902080546001600160a01b0319166001600160a01b0392909216919091179055506200064d565b60006005816200054d60018662000ca8565b815260200190815260200160002060009054906101000a90046001600160a01b03166001600160a01b0316637821e39c6040518163ffffffff1660e01b8152600401600060405180830381865afa158015620005ad573d6000803e3d6000fd5b505050506040513d6000823e601f3d908101601f19168201604052620005d7919081019062000cea565b945050505050600080548284604051620005f19062000876565b620005ff9392919062000dc0565b604051809103906000f0801580156200061c573d6000803e3d6000fd5b5060008054815260056020526040902080546001600160a01b0319166001600160a01b039290921691909117905550505b5050600080548152600560205260409020546001600160a01b031692915050565b600254600160481b90046001600160a01b03163314620006a25760405162461bcd60e51b8152600401620002429062000a6a565b600254600160401b900460ff16620007175760405162461bcd60e51b815260206004820152603160248201527f4661696c656420656e643a204e6f2061637469766520726f756e642063757272604482015270656e746c7920696e2070726f677265737360781b606482015260840162000242565b6002805460ff60401b1916905560008054808252600560209081526040928390205483519283526001600160a01b0316908201527f5d3c6aefe44f1f60da7cb22f07835f2e4ebb305a4d454cb700b47d91aa476107910160405180910390a1600080548152600560205260409081902054905163228abb1f60e21b81526001600160a01b0390911690638a2aec7c90620007be908890889088908890889060040162000df9565b600060405180830381600087803b158015620007d957600080fd5b505af1158015620007ee573d6000803e3d6000fd5b50505050620007fc62000849565b5050505050565b600254600160481b90046001600160a01b03163314620008375760405162461bcd60e51b8152600401620002429062000a6a565b600362000845828262000e79565b5050565b6000546200085990600162000f45565b60005560025462000873906001600160401b03166200020b565b50565b61115a8062000f5c83390190565b6000602082840312156200089757600080fd5b81356001600160401b0381168114620008af57600080fd5b9392505050565b600060208284031215620008c957600080fd5b81358015158114620008af57600080fd5b634e487b7160e01b600052604160045260246000fd5b604051601f8201601f191681016001600160401b03811182821017156200091b576200091b620008da565b604052919050565b60006001600160401b038211156200093f576200093f620008da565b50601f01601f191660200190565b600082601f8301126200095f57600080fd5b813562000976620009708262000923565b620008f0565b8181528460208386010111156200098c57600080fd5b816020850160208301376000918101602001919091529392505050565b600080600080600060a08688031215620009c257600080fd5b8535945060208601359350604086013592506060860135915060808601356001600160401b03811115620009f557600080fd5b62000a03888289016200094d565b9150509295509295909350565b60006020828403121562000a2357600080fd5b5035919050565b60006020828403121562000a3d57600080fd5b81356001600160401b0381111562000a5457600080fd5b62000a62848285016200094d565b949350505050565b6020808252601290820152712737ba1031b7b73a3930b1ba1037bbb732b960711b604082015260600190565b6000602080838503121562000aaa57600080fd5b82516001600160401b038082111562000ac257600080fd5b818501915085601f83011262000ad757600080fd5b81518181111562000aec5762000aec620008da565b8060051b915062000aff848301620008f0565b818152918301840191848101908884111562000b1a57600080fd5b938501935b8385101562000b5457845192506001600160a01b038316831462000b435760008081fd5b828252938501939085019062000b1f565b98975050505050505050565b600181811c9082168062000b7557607f821691505b60208210810362000b9657634e487b7160e01b600052602260045260246000fd5b50919050565b600081518084526020808501945080840160005b8381101562000bd75781516001600160a01b03168752958201959082019060010162000bb0565b509495945050505050565b838152600060206060818401526000855462000bfe8162000b60565b806060870152608060018084166000811462000c23576001811462000c3e5762000c6e565b60ff1985168984015283151560051b89018301955062000c6e565b8a6000528660002060005b8581101562000c665781548b820186015290830190880162000c49565b8a0184019650505b5050505050838103604085015262000c87818662000b9c565b979650505050505050565b634e487b7160e01b600052601160045260246000fd5b8181038181111562000cbe5762000cbe62000c92565b92915050565b60005b8381101562000ce157818101518382015260200162000cc7565b50506000910152565b600080600080600060a0868803121562000d0357600080fd5b8551945060208601519350604086015192506060860151915060808601516001600160401b0381111562000d3657600080fd5b8601601f8101881362000d4857600080fd5b805162000d59620009708262000923565b81815289602083850101111562000d6f57600080fd5b62000d8282602083016020860162000cc4565b8093505050509295509295909350565b6000815180845262000dac81602086016020860162000cc4565b601f01601f19169290920160200192915050565b83815260606020820152600062000ddb606083018562000d92565b828103604084015262000def818562000b9c565b9695505050505050565b85815284602082015283604082015282606082015260a06080820152600062000c8760a083018462000d92565b601f82111562000e7457600081815260208120601f850160051c8101602086101562000e4f5750805b601f850160051c820191505b8181101562000e705782815560010162000e5b565b5050505b505050565b81516001600160401b0381111562000e955762000e95620008da565b62000ead8162000ea6845462000b60565b8462000e26565b602080601f83116001811462000ee5576000841562000ecc5750858301515b600019600386901b1c1916600185901b17855562000e70565b600085815260208120601f198616915b8281101562000f165788860151825594840194600190910190840162000ef5565b508582101562000f355787850151600019600388901b60f8161c191681555b5050505050600190811b01905550565b8082018082111562000cbe5762000cbe62000c9256fe60806040523480156200001157600080fd5b506040516200115a3803806200115a833981016040819052620000349162000244565b60008390556001620000478382620003b8565b5080516200005d906002906020840190620000db565b5060005b600254811015620000d1576001600860006002848154811062000088576200008862000484565b6000918252602080832091909101546001600160a01b031683528201929092526040019020805460ff191691151591909117905580620000c8816200049a565b91505062000061565b50505050620004c2565b82805482825590600052602060002090810192821562000133579160200282015b828111156200013357825182546001600160a01b0319166001600160a01b03909116178255602090920191600190910190620000fc565b506200014192915062000145565b5090565b5b8082111562000141576000815560010162000146565b634e487b7160e01b600052604160045260246000fd5b604051601f8201601f191681016001600160401b03811182821017156200019d576200019d6200015c565b604052919050565b600082601f830112620001b757600080fd5b815160206001600160401b03821115620001d557620001d56200015c565b8160051b620001e682820162000172565b92835284810182019282810190878511156200020157600080fd5b83870192505b84831015620002395782516001600160a01b0381168114620002295760008081fd5b8252918301919083019062000207565b979650505050505050565b6000806000606084860312156200025a57600080fd5b8351602080860151919450906001600160401b03808211156200027c57600080fd5b818701915087601f8301126200029157600080fd5b815181811115620002a657620002a66200015c565b620002ba601f8201601f1916850162000172565b8181528985838601011115620002cf57600080fd5b60005b82811015620002ef578481018601518282018701528501620002d2565b506000918101909401526040870151929450808311156200030f57600080fd5b50506200031f86828701620001a5565b9150509250925092565b600181811c908216806200033e57607f821691505b6020821081036200035f57634e487b7160e01b600052602260045260246000fd5b50919050565b601f821115620003b357600081815260208120601f850160051c810160208610156200038e5750805b601f850160051c820191505b81811015620003af578281556001016200039a565b5050505b505050565b81516001600160401b03811115620003d457620003d46200015c565b620003ec81620003e5845462000329565b8462000365565b602080601f8311600181146200042457600084156200040b5750858301515b600019600386901b1c1916600185901b178555620003af565b600085815260208120601f198616915b82811015620004555788860151825594840194600190910190840162000434565b5085821015620004745787850151600019600388901b60f8161c191681555b5050505050600190811b01905550565b634e487b7160e01b600052603260045260246000fd5b600060018201620004bb57634e487b7160e01b600052601160045260246000fd5b5060010190565b610c8880620004d26000396000f3fe608060405234801561001057600080fd5b50600436106100b45760003560e01c80638cd221c9116100715780638cd221c91461014257806391004a1714610159578063929066f51461016c578063b06506491461019f578063c3c5a547146101b2578063d76bb276146101de57600080fd5b806330a29d39146100b95780633d75d4af146100d75780634ffb5f7c146100fb5780635aa68ac0146101105780637821e39c146101255780638a2aec7c1461012d575b600080fd5b6100c16101e6565b6040516100ce9190610826565b60405180910390f35b6100ea6100e53660046108a4565b610347565b6040516100ce9594939291906108c6565b610103610400565b6040516100ce91906108fc565b61011861048e565b6040516100ce919061090f565b6100ea6104f0565b61014061013b3660046109ff565b610512565b005b61014b60005481565b6040519081526020016100ce565b610140610167366004610a63565b61053a565b61018f61017a3660046108a4565b60086020526000908152604090205460ff1681565b60405190151581526020016100ce565b6100ea6101ad3660046108a4565b610633565b61018f6101c03660046108a4565b6001600160a01b031660009081526008602052604090205460ff1690565b6100ea61071c565b60025460609060009067ffffffffffffffff8111156102075761020761095c565b60405190808252806020026020018201604052801561023a57816020015b60608152602001906001900390816102255790505b50905060005b60025481101561034157600960006002838154811061026157610261610ad6565b60009182526020808320909101546001600160a01b031683528201929092526040019020600401805461029390610aec565b80601f01602080910402602001604051908101604052809291908181526020018280546102bf90610aec565b801561030c5780601f106102e15761010080835404028352916020019161030c565b820191906000526020600020905b8154815290600101906020018083116102ef57829003601f168201915b505050505082828151811061032357610323610ad6565b6020026020010181905250808061033990610b20565b915050610240565b50919050565b60096020526000908152604090208054600182015460028301546003840154600485018054949593949293919261037d90610aec565b80601f01602080910402602001604051908101604052809291908181526020018280546103a990610aec565b80156103f65780601f106103cb576101008083540402835291602001916103f6565b820191906000526020600020905b8154815290600101906020018083116103d957829003601f168201915b5050505050905085565b6001805461040d90610aec565b80601f016020809104026020016040519081016040528092919081815260200182805461043990610aec565b80156104865780601f1061045b57610100808354040283529160200191610486565b820191906000526020600020905b81548152906001019060200180831161046957829003601f168201915b505050505081565b606060028054806020026020016040519081016040528092919081815260200182805480156104e657602002820191906000526020600020905b81546001600160a01b031681526001909101906020018083116104c8575b5050505050905090565b6003805460045460055460065460078054949593949293919261037d90610aec565b600385905560048490556005839055600682905560076105328282610b92565b505050505050565b6001600160a01b03861660009081526008602052604090205460ff166105bb5760405162461bcd60e51b815260206004820152602c60248201527f4661696c6564205375626d69743a207061727469636970616e74206973206e6f60448201526b1d081c9959da5cdd195c995960a21b606482015260840160405180910390fd5b6040805160a081018252868152602080820187815282840187815260608401878152608085018781526001600160a01b038d166000908152600990955295909320845181559151600183015551600282015590516003820155915190919060048201906106289082610b92565b505050505050505050565b6000806000806060600060096000886001600160a01b03166001600160a01b03168152602001908152602001600020905080600001548160010154826002015483600301548460040180805461068890610aec565b80601f01602080910402602001604051908101604052809291908181526020018280546106b490610aec565b80156107015780601f106106d657610100808354040283529160200191610701565b820191906000526020600020905b8154815290600101906020018083116106e457829003601f168201915b50505050509050955095509550955095505091939590929450565b600080600080606060006003905080600001548160010154826002015483600301548460040180805461074e90610aec565b80601f016020809104026020016040519081016040528092919081815260200182805461077a90610aec565b80156107c75780601f1061079c576101008083540402835291602001916107c7565b820191906000526020600020905b8154815290600101906020018083116107aa57829003601f168201915b5050505050905095509550955095509550509091929394565b6000815180845260005b81811015610806576020818501810151868301820152016107ea565b506000602082860101526020601f19601f83011685010191505092915050565b6000602080830181845280855180835260408601915060408160051b870101925083870160005b8281101561087b57603f198886030184526108698583516107e0565b9450928501929085019060010161084d565b5092979650505050505050565b80356001600160a01b038116811461089f57600080fd5b919050565b6000602082840312156108b657600080fd5b6108bf82610888565b9392505050565b85815284602082015283604082015282606082015260a0608082015260006108f160a08301846107e0565b979650505050505050565b6020815260006108bf60208301846107e0565b6020808252825182820181905260009190848201906040850190845b818110156109505783516001600160a01b03168352928401929184019160010161092b565b50909695505050505050565b634e487b7160e01b600052604160045260246000fd5b600082601f83011261098357600080fd5b813567ffffffffffffffff8082111561099e5761099e61095c565b604051601f8301601f19908116603f011681019082821181831017156109c6576109c661095c565b816040528381528660208588010111156109df57600080fd5b836020870160208301376000602085830101528094505050505092915050565b600080600080600060a08688031215610a1757600080fd5b85359450602086013593506040860135925060608601359150608086013567ffffffffffffffff811115610a4a57600080fd5b610a5688828901610972565b9150509295509295909350565b60008060008060008060c08789031215610a7c57600080fd5b610a8587610888565b95506020870135945060408701359350606087013592506080870135915060a087013567ffffffffffffffff811115610abd57600080fd5b610ac989828a01610972565b9150509295509295509295565b634e487b7160e01b600052603260045260246000fd5b600181811c90821680610b0057607f821691505b60208210810361034157634e487b7160e01b600052602260045260246000fd5b600060018201610b4057634e487b7160e01b600052601160045260246000fd5b5060010190565b601f821115610b8d57600081815260208120601f850160051c81016020861015610b6e5750805b601f850160051c820191505b8181101561053257828155600101610b7a565b505050565b815167ffffffffffffffff811115610bac57610bac61095c565b610bc081610bba8454610aec565b84610b47565b602080601f831160018114610bf55760008415610bdd5750858301515b600019600386901b1c1916600185901b178555610532565b600085815260208120601f198616915b82811015610c2457888601518255948401946001909101908401610c05565b5085821015610c425787850151600019600388901b60f8161c191681555b5050505050600190811b0190555056fea26469706673582212207864e644f87975afe8581de46cf1cfd18c3bd602b807d8106472d66575f85e3464736f6c63430008140033a2646970667358221220525af84a988732b50f5d80def312014daa544ee6ec1b073db90e9bbf893279ba64736f6c63430008140033",
  "linkReferences": {},
  "deployedLinkReferences": {}
}