{
  "_format": "hh-sol-artifact-1",
  "contractName": "RoundControl",
  "sourceName": "contracts/RoundControl.sol",
  "abi": [
    {
      "inputs": [
        {
          "internalType": "string",
          "name": "_initialGlobalModelCid",
          "type": "string"
        },
        {
          "internalType": "address",
          "name": "_registrationContract",
          "type": "address"
        }
      ],
      "stateMutability": "nonpayable",
      "type": "constructor"
    },
    {
      "anonymous": false,
      "inputs": [
        {
          "indexed": false,
          "internalType": "uint256",
          "name": "roundId",
          "type": "uint256"
        }
      ],
      "name": "RoundEnded",
      "type": "event"
    },
    {
      "anonymous": false,
      "inputs": [
        {
          "indexed": false,
          "internalType": "uint256",
          "name": "roundId",
          "type": "uint256"
        }
      ],
      "name": "RoundStarted",
      "type": "event"
    },
    {
      "inputs": [],
      "name": "active",
      "outputs": [
        {
          "internalType": "bool",
          "name": "",
          "type": "bool"
        }
      ],
      "stateMutability": "view",
      "type": "function"
    },
    {
      "inputs": [
        {
          "internalType": "uint64",
          "name": "_noOfParticipants",
          "type": "uint64"
        }
      ],
      "name": "createRound",
      "outputs": [
        {
          "internalType": "uint256",
          "name": "",
          "type": "uint256"
        }
      ],
      "stateMutability": "nonpayable",
      "type": "function"
    },
    {
      "inputs": [],
      "name": "currentRoundId",
      "outputs": [
        {
          "internalType": "uint256",
          "name": "",
          "type": "uint256"
        }
      ],
      "stateMutability": "view",
      "type": "function"
    },
    {
      "inputs": [],
      "name": "endRound",
      "outputs": [],
      "stateMutability": "nonpayable",
      "type": "function"
    },
    {
      "inputs": [
        {
          "internalType": "uint256",
          "name": "_roundId",
          "type": "uint256"
        }
      ],
      "name": "getRound",
      "outputs": [
        {
          "internalType": "address",
          "name": "",
          "type": "address"
        }
      ],
      "stateMutability": "view",
      "type": "function"
    },
    {
      "inputs": [],
      "name": "owner",
      "outputs": [
        {
          "internalType": "address",
          "name": "",
          "type": "address"
        }
      ],
      "stateMutability": "view",
      "type": "function"
    },
    {
      "inputs": [
        {
          "internalType": "bool",
          "name": "_active",
          "type": "bool"
        }
      ],
      "name": "setRoundActive",
      "outputs": [],
      "stateMutability": "nonpayable",
      "type": "function"
    },
    {
      "inputs": [
        {
          "internalType": "uint64",
          "name": "_noOfParticipants",
          "type": "uint64"
        }
      ],
      "name": "startRound",
      "outputs": [
        {
          "internalType": "uint256",
          "name": "",
          "type": "uint256"
        }
      ],
      "stateMutability": "nonpayable",
      "type": "function"
    },
    {
      "inputs": [
        {
          "internalType": "string",
          "name": "cid",
          "type": "string"
        }
      ],
      "name": "submitParticipantCid",
      "outputs": [],
      "stateMutability": "nonpayable",
      "type": "function"
    }
  ],
  "bytecode": "0x608060405234801561001057600080fd5b50604051613472380380613472833981810160405281019061003291906102bf565b6000600160006101000a81548160ff02191690831515021790555060008081905550336001806101000a81548173ffffffffffffffffffffffffffffffffffffffff021916908373ffffffffffffffffffffffffffffffffffffffff16021790555081600290816100a3919061053c565b5080600360006101000a81548173ffffffffffffffffffffffffffffffffffffffff021916908373ffffffffffffffffffffffffffffffffffffffff160217905550505061060e565b6000604051905090565b600080fd5b600080fd5b600080fd5b600080fd5b6000601f19601f8301169050919050565b7f4e487b7100000000000000000000000000000000000000000000000000000000600052604160045260246000fd5b6101538261010a565b810181811067ffffffffffffffff821117156101725761017161011b565b5b80604052505050565b60006101856100ec565b9050610191828261014a565b919050565b600067ffffffffffffffff8211156101b1576101b061011b565b5b6101ba8261010a565b9050602081019050919050565b60005b838110156101e55780820151818401526020810190506101ca565b60008484015250505050565b60006102046101ff84610196565b61017b565b9050828152602081018484840111156102205761021f610105565b5b61022b8482856101c7565b509392505050565b600082601f83011261024857610247610100565b5b81516102588482602086016101f1565b91505092915050565b600073ffffffffffffffffffffffffffffffffffffffff82169050919050565b600061028c82610261565b9050919050565b61029c81610281565b81146102a757600080fd5b50565b6000815190506102b981610293565b92915050565b600080604083850312156102d6576102d56100f6565b5b600083015167ffffffffffffffff8111156102f4576102f36100fb565b5b61030085828601610233565b9250506020610311858286016102aa565b9150509250929050565b600081519050919050565b7f4e487b7100000000000000000000000000000000000000000000000000000000600052602260045260246000fd5b6000600282049050600182168061036d57607f821691505b6020821081036103805761037f610326565b5b50919050565b60008190508160005260206000209050919050565b60006020601f8301049050919050565b600082821b905092915050565b6000600883026103e87fffffffffffffffffffffffffffffffffffffffffffffffffffffffffffffffff826103ab565b6103f286836103ab565b95508019841693508086168417925050509392505050565b6000819050919050565b6000819050919050565b600061043961043461042f8461040a565b610414565b61040a565b9050919050565b6000819050919050565b6104538361041e565b61046761045f82610440565b8484546103b8565b825550505050565b600090565b61047c61046f565b61048781848461044a565b505050565b5b818110156104ab576104a0600082610474565b60018101905061048d565b5050565b601f8211156104f0576104c181610386565b6104ca8461039b565b810160208510156104d9578190505b6104ed6104e58561039b565b83018261048c565b50505b505050565b600082821c905092915050565b6000610513600019846008026104f5565b1980831691505092915050565b600061052c8383610502565b9150826002028217905092915050565b6105458261031b565b67ffffffffffffffff81111561055e5761055d61011b565b5b6105688254610355565b6105738282856104af565b600060209050601f8311600181146105a65760008415610594578287015190505b61059e8582610520565b865550610606565b601f1984166105b486610386565b60005b828110156105dc578489015182556001820191506020850194506020810190506105b7565b868310156105f957848901516105f5601f891682610502565b8355505b6001600288020188555050505b505050505050565b612e558061061d6000396000f3fe608060405234801561001057600080fd5b50600436106100935760003560e01c80635bfe14f9116100665780635bfe14f91461011e578063749aa2d91461014e5780638da5cb5b146101585780638f1327c0146101765780639cbe5efd146101a657610093565b806302fb0c5e14610098578063323777d4146100b65780634136de12146100d2578063512dec3914610102575b600080fd5b6100a06101c4565b6040516100ad9190610a15565b60405180910390f35b6100d060048036038101906100cb9190610b8a565b6101d7565b005b6100ec60048036038101906100e79190610c13565b6102ca565b6040516100f99190610c59565b60405180910390f35b61011c60048036038101906101179190610ca0565b610411565b005b61013860048036038101906101339190610c13565b6104bc565b6040516101459190610c59565b60405180910390f35b610156610834565b005b61016061096f565b60405161016d9190610d0e565b60405180910390f35b610190600480360381019061018b9190610d55565b610993565b60405161019d9190610d0e565b60405180910390f35b6101ae6109d0565b6040516101bb9190610c59565b60405180910390f35b600160009054906101000a900460ff1681565b600160009054906101000a900460ff16610226576040517f08c379a000000000000000000000000000000000000000000000000000000000815260040161021d90610ddf565b60405180910390fd5b600460008054815260200190815260200160002060009054906101000a900473ffffffffffffffffffffffffffffffffffffffff1673ffffffffffffffffffffffffffffffffffffffff1663ffbe9f9933836040518363ffffffff1660e01b8152600401610295929190610e6d565b600060405180830381600087803b1580156102af57600080fd5b505af11580156102c3573d6000803e3d6000fd5b5050505050565b600060018054906101000a900473ffffffffffffffffffffffffffffffffffffffff1673ffffffffffffffffffffffffffffffffffffffff163373ffffffffffffffffffffffffffffffffffffffff161461035a576040517f08c379a000000000000000000000000000000000000000000000000000000000815260040161035190610ee9565b60405180910390fd5b600160009054906101000a900460ff16156103aa576040517f08c379a00000000000000000000000000000000000000000000000000000000081526004016103a190610f7b565b60405180910390fd5b6103b3826104bc565b5060018060006101000a81548160ff0219169083151502179055507f33a701182892fd888ed152ca2ac23771a32e814469b7cd255965471e1af3a6596000546040516103ff9190610c59565b60405180910390a16000549050919050565b60018054906101000a900473ffffffffffffffffffffffffffffffffffffffff1673ffffffffffffffffffffffffffffffffffffffff163373ffffffffffffffffffffffffffffffffffffffff161461049f576040517f08c379a000000000000000000000000000000000000000000000000000000000815260040161049690610ee9565b60405180910390fd5b80600160006101000a81548160ff02191690831515021790555050565b600060018054906101000a900473ffffffffffffffffffffffffffffffffffffffff1673ffffffffffffffffffffffffffffffffffffffff163373ffffffffffffffffffffffffffffffffffffffff161461054c576040517f08c379a000000000000000000000000000000000000000000000000000000000815260040161054390610ee9565b60405180910390fd5b600160009054906101000a900460ff161561059c576040517f08c379a00000000000000000000000000000000000000000000000000000000081526004016105939061100d565b60405180910390fd5b6000805490506000600360009054906101000a900473ffffffffffffffffffffffffffffffffffffffff1673ffffffffffffffffffffffffffffffffffffffff1663985a2f92856040518263ffffffff1660e01b81526004016105ff9190611068565b600060405180830381865afa15801561061c573d6000803e3d6000fd5b505050506040513d6000823e3d601f19601f820116820180604052508101906106459190611177565b9050600082036106e65760008054600283604051610662906109ed565b61066e93929190611377565b604051809103906000f08015801561068a573d6000803e3d6000fd5b50905080600460008054815260200190815260200160002060006101000a81548173ffffffffffffffffffffffffffffffffffffffff021916908373ffffffffffffffffffffffffffffffffffffffff1602179055505061082a565b60008054600460006001866106fb91906113eb565b815260200190815260200160002060009054906101000a900473ffffffffffffffffffffffffffffffffffffffff1673ffffffffffffffffffffffffffffffffffffffff166379dda9186040518163ffffffff1660e01b8152600401600060405180830381865afa158015610774573d6000803e3d6000fd5b505050506040513d6000823e3d601f19601f8201168201806040525081019061079d919061148f565b836040516107aa906109ed565b6107b6939291906114d8565b604051809103906000f0801580156107d2573d6000803e3d6000fd5b50905080600460008054815260200190815260200160002060006101000a81548173ffffffffffffffffffffffffffffffffffffffff021916908373ffffffffffffffffffffffffffffffffffffffff160217905550505b8192505050919050565b60018054906101000a900473ffffffffffffffffffffffffffffffffffffffff1673ffffffffffffffffffffffffffffffffffffffff163373ffffffffffffffffffffffffffffffffffffffff16146108c2576040517f08c379a00000000000000000000000000000000000000000000000000000000081526004016108b990610ee9565b60405180910390fd5b600160009054906101000a900460ff16610911576040517f08c379a00000000000000000000000000000000000000000000000000000000081526004016109089061158f565b60405180910390fd5b6000600160006101000a81548160ff0219169083151502179055507faa97d4a7b3afec5f55c25ca8593dde6929d4455fad650a16fa4334004293a61860005460405161095d9190610c59565b60405180910390a161096d6109d6565b565b60018054906101000a900473ffffffffffffffffffffffffffffffffffffffff1681565b60006004600083815260200190815260200160002060009054906101000a900473ffffffffffffffffffffffffffffffffffffffff169050919050565b60005481565b60016000546109e591906115af565b600081905550565b61183c806115e483390190565b60008115159050919050565b610a0f816109fa565b82525050565b6000602082019050610a2a6000830184610a06565b92915050565b6000604051905090565b600080fd5b600080fd5b600080fd5b600080fd5b6000601f19601f8301169050919050565b7f4e487b7100000000000000000000000000000000000000000000000000000000600052604160045260246000fd5b610a9782610a4e565b810181811067ffffffffffffffff82111715610ab657610ab5610a5f565b5b80604052505050565b6000610ac9610a30565b9050610ad58282610a8e565b919050565b600067ffffffffffffffff821115610af557610af4610a5f565b5b610afe82610a4e565b9050602081019050919050565b82818337600083830152505050565b6000610b2d610b2884610ada565b610abf565b905082815260208101848484011115610b4957610b48610a49565b5b610b54848285610b0b565b509392505050565b600082601f830112610b7157610b70610a44565b5b8135610b81848260208601610b1a565b91505092915050565b600060208284031215610ba057610b9f610a3a565b5b600082013567ffffffffffffffff811115610bbe57610bbd610a3f565b5b610bca84828501610b5c565b91505092915050565b600067ffffffffffffffff82169050919050565b610bf081610bd3565b8114610bfb57600080fd5b50565b600081359050610c0d81610be7565b92915050565b600060208284031215610c2957610c28610a3a565b5b6000610c3784828501610bfe565b91505092915050565b6000819050919050565b610c5381610c40565b82525050565b6000602082019050610c6e6000830184610c4a565b92915050565b610c7d816109fa565b8114610c8857600080fd5b50565b600081359050610c9a81610c74565b92915050565b600060208284031215610cb657610cb5610a3a565b5b6000610cc484828501610c8b565b91505092915050565b600073ffffffffffffffffffffffffffffffffffffffff82169050919050565b6000610cf882610ccd565b9050919050565b610d0881610ced565b82525050565b6000602082019050610d236000830184610cff565b92915050565b610d3281610c40565b8114610d3d57600080fd5b50565b600081359050610d4f81610d29565b92915050565b600060208284031215610d6b57610d6a610a3a565b5b6000610d7984828501610d40565b91505092915050565b600082825260208201905092915050565b7f4e6f2061637469766520726f756e640000000000000000000000000000000000600082015250565b6000610dc9600f83610d82565b9150610dd482610d93565b602082019050919050565b60006020820190508181036000830152610df881610dbc565b9050919050565b600081519050919050565b60005b83811015610e28578082015181840152602081019050610e0d565b60008484015250505050565b6000610e3f82610dff565b610e498185610d82565b9350610e59818560208601610e0a565b610e6281610a4e565b840191505092915050565b6000604082019050610e826000830185610cff565b8181036020830152610e948184610e34565b90509392505050565b7f4e6f7420636f6e7472616374206f776e65720000000000000000000000000000600082015250565b6000610ed3601283610d82565b9150610ede82610e9d565b602082019050919050565b60006020820190508181036000830152610f0281610ec6565b9050919050565b7f4661696c65642053746172743a20526f756e642069732063757272656e746c7960008201527f2072756e6e696e67000000000000000000000000000000000000000000000000602082015250565b6000610f65602883610d82565b9150610f7082610f09565b604082019050919050565b60006020820190508181036000830152610f9481610f58565b9050919050565b7f4661696c6564204372656174653a20526f756e642069732043757272656e746c60008201527f7920616374697665000000000000000000000000000000000000000000000000602082015250565b6000610ff7602883610d82565b915061100282610f9b565b604082019050919050565b6000602082019050818103600083015261102681610fea565b9050919050565b6000819050919050565b600061105261104d61104884610bd3565b61102d565b610c40565b9050919050565b61106281611037565b82525050565b600060208201905061107d6000830184611059565b92915050565b600067ffffffffffffffff82111561109e5761109d610a5f565b5b602082029050602081019050919050565b600080fd5b6110bd81610ced565b81146110c857600080fd5b50565b6000815190506110da816110b4565b92915050565b60006110f36110ee84611083565b610abf565b90508083825260208201905060208402830185811115611116576111156110af565b5b835b8181101561113f578061112b88826110cb565b845260208401935050602081019050611118565b5050509392505050565b600082601f83011261115e5761115d610a44565b5b815161116e8482602086016110e0565b91505092915050565b60006020828403121561118d5761118c610a3a565b5b600082015167ffffffffffffffff8111156111ab576111aa610a3f565b5b6111b784828501611149565b91505092915050565b7f4e487b7100000000000000000000000000000000000000000000000000000000600052602260045260246000fd5b6000600282049050600182168061120757607f821691505b60208210810361121a576112196111c0565b5b50919050565b60008190508160005260206000209050919050565b60008154611242816111ef565b61124c8186610d82565b94506001821660008114611267576001811461127d576112b0565b60ff1983168652811515602002860193506112b0565b61128685611220565b60005b838110156112a857815481890152600182019150602081019050611289565b808801955050505b50505092915050565b600081519050919050565b600082825260208201905092915050565b6000819050602082019050919050565b6112ee81610ced565b82525050565b600061130083836112e5565b60208301905092915050565b6000602082019050919050565b6000611324826112b9565b61132e81856112c4565b9350611339836112d5565b8060005b8381101561136a57815161135188826112f4565b975061135c8361130c565b92505060018101905061133d565b5085935050505092915050565b600060608201905061138c6000830186610c4a565b818103602083015261139e8185611235565b905081810360408301526113b28184611319565b9050949350505050565b7f4e487b7100000000000000000000000000000000000000000000000000000000600052601160045260246000fd5b60006113f682610c40565b915061140183610c40565b9250828203905081811115611419576114186113bc565b5b92915050565b600061143261142d84610ada565b610abf565b90508281526020810184848401111561144e5761144d610a49565b5b611459848285610e0a565b509392505050565b600082601f83011261147657611475610a44565b5b815161148684826020860161141f565b91505092915050565b6000602082840312156114a5576114a4610a3a565b5b600082015167ffffffffffffffff8111156114c3576114c2610a3f565b5b6114cf84828501611461565b91505092915050565b60006060820190506114ed6000830186610c4a565b81810360208301526114ff8185610e34565b905081810360408301526115138184611319565b9050949350505050565b7f4661696c656420656e643a204e6f2061637469766520726f756e64206375727260008201527f656e746c7920696e2070726f6772657373000000000000000000000000000000602082015250565b6000611579603183610d82565b91506115848261151d565b604082019050919050565b600060208201905081810360008301526115a88161156c565b9050919050565b60006115ba82610c40565b91506115c583610c40565b92508282019050808211156115dd576115dc6113bc565b5b9291505056fe608060405234801561001057600080fd5b5060405161183c38038061183c83398181016040528101906100329190610494565b8260008190555081600190816100489190610736565b50806003908051906020019061005f92919061011c565b5060005b600380549050811015610113576001600460006003848154811061008a57610089610808565b5b9060005260206000200160009054906101000a900473ffffffffffffffffffffffffffffffffffffffff1673ffffffffffffffffffffffffffffffffffffffff1673ffffffffffffffffffffffffffffffffffffffff16815260200190815260200160002060006101000a81548160ff0219169083151502179055508080600101915050610063565b50505050610837565b828054828255906000526020600020908101928215610195579160200282015b828111156101945782518260006101000a81548173ffffffffffffffffffffffffffffffffffffffff021916908373ffffffffffffffffffffffffffffffffffffffff1602179055509160200191906001019061013c565b5b5090506101a291906101a6565b5090565b5b808211156101bf5760008160009055506001016101a7565b5090565b6000604051905090565b600080fd5b600080fd5b6000819050919050565b6101ea816101d7565b81146101f557600080fd5b50565b600081519050610207816101e1565b92915050565b600080fd5b600080fd5b6000601f19601f8301169050919050565b7f4e487b7100000000000000000000000000000000000000000000000000000000600052604160045260246000fd5b61026082610217565b810181811067ffffffffffffffff8211171561027f5761027e610228565b5b80604052505050565b60006102926101c3565b905061029e8282610257565b919050565b600067ffffffffffffffff8211156102be576102bd610228565b5b6102c782610217565b9050602081019050919050565b60005b838110156102f25780820151818401526020810190506102d7565b60008484015250505050565b600061031161030c846102a3565b610288565b90508281526020810184848401111561032d5761032c610212565b5b6103388482856102d4565b509392505050565b600082601f8301126103555761035461020d565b5b81516103658482602086016102fe565b91505092915050565b600067ffffffffffffffff82111561038957610388610228565b5b602082029050602081019050919050565b600080fd5b600073ffffffffffffffffffffffffffffffffffffffff82169050919050565b60006103ca8261039f565b9050919050565b6103da816103bf565b81146103e557600080fd5b50565b6000815190506103f7816103d1565b92915050565b600061041061040b8461036e565b610288565b905080838252602082019050602084028301858111156104335761043261039a565b5b835b8181101561045c578061044888826103e8565b845260208401935050602081019050610435565b5050509392505050565b600082601f83011261047b5761047a61020d565b5b815161048b8482602086016103fd565b91505092915050565b6000806000606084860312156104ad576104ac6101cd565b5b60006104bb868287016101f8565b935050602084015167ffffffffffffffff8111156104dc576104db6101d2565b5b6104e886828701610340565b925050604084015167ffffffffffffffff811115610509576105086101d2565b5b61051586828701610466565b9150509250925092565b600081519050919050565b7f4e487b7100000000000000000000000000000000000000000000000000000000600052602260045260246000fd5b6000600282049050600182168061057157607f821691505b6020821081036105845761058361052a565b5b50919050565b60008190508160005260206000209050919050565b60006020601f8301049050919050565b600082821b905092915050565b6000600883026105ec7fffffffffffffffffffffffffffffffffffffffffffffffffffffffffffffffff826105af565b6105f686836105af565b95508019841693508086168417925050509392505050565b6000819050919050565b600061063361062e610629846101d7565b61060e565b6101d7565b9050919050565b6000819050919050565b61064d83610618565b6106616106598261063a565b8484546105bc565b825550505050565b600090565b610676610669565b610681818484610644565b505050565b5b818110156106a55761069a60008261066e565b600181019050610687565b5050565b601f8211156106ea576106bb8161058a565b6106c48461059f565b810160208510156106d3578190505b6106e76106df8561059f565b830182610686565b50505b505050565b600082821c905092915050565b600061070d600019846008026106ef565b1980831691505092915050565b600061072683836106fc565b9150826002028217905092915050565b61073f8261051f565b67ffffffffffffffff81111561075857610757610228565b5b6107628254610559565b61076d8282856106a9565b600060209050601f8311600181146107a0576000841561078e578287015190505b610798858261071a565b865550610800565b601f1984166107ae8661058a565b60005b828110156107d6578489015182556001820191506020850194506020810190506107b1565b868310156107f357848901516107ef601f8916826106fc565b8355505b6001600288020188555050505b505050505050565b7f4e487b7100000000000000000000000000000000000000000000000000000000600052603260045260246000fd5b610ff6806108466000396000f3fe608060405234801561001057600080fd5b50600436106100935760003560e01c80638cd221c9116100665780638cd221c914610110578063929066f51461012e578063b23ce5ac1461015e578063c3c5a5471461017a578063ffbe9f99146101aa57610093565b806330a29d39146100985780634ffb5f7c146100b65780635aa68ac0146100d457806379dda918146100f2575b600080fd5b6100a06101c6565b6040516100ad91906107d0565b60405180910390f35b6100be610368565b6040516100cb919061083c565b60405180910390f35b6100dc6103f6565b6040516100e9919061094e565b60405180910390f35b6100fa610484565b604051610107919061083c565b60405180910390f35b610118610512565b6040516101259190610989565b60405180910390f35b610148600480360381019061014391906109e4565b610518565b6040516101559190610a2c565b60405180910390f35b61017860048036038101906101739190610b7c565b610538565b005b610194600480360381019061018f91906109e4565b61054b565b6040516101a19190610a2c565b60405180910390f35b6101c460048036038101906101bf9190610bc5565b6105a1565b005b6060600060038054905067ffffffffffffffff8111156101e9576101e8610a51565b5b60405190808252806020026020018201604052801561021c57816020015b60608152602001906001900390816102075790505b50905060005b60038054905081101561036057600560006003838154811061024757610246610c21565b5b9060005260206000200160009054906101000a900473ffffffffffffffffffffffffffffffffffffffff1673ffffffffffffffffffffffffffffffffffffffff1673ffffffffffffffffffffffffffffffffffffffff16815260200190815260200160002080546102b790610c7f565b80601f01602080910402602001604051908101604052809291908181526020018280546102e390610c7f565b80156103305780601f1061030557610100808354040283529160200191610330565b820191906000526020600020905b81548152906001019060200180831161031357829003601f168201915b505050505082828151811061034857610347610c21565b5b60200260200101819052508080600101915050610222565b508091505090565b6001805461037590610c7f565b80601f01602080910402602001604051908101604052809291908181526020018280546103a190610c7f565b80156103ee5780601f106103c3576101008083540402835291602001916103ee565b820191906000526020600020905b8154815290600101906020018083116103d157829003601f168201915b505050505081565b6060600380548060200260200160405190810160405280929190818152602001828054801561047a57602002820191906000526020600020905b8160009054906101000a900473ffffffffffffffffffffffffffffffffffffffff1673ffffffffffffffffffffffffffffffffffffffff1681526020019060010190808311610430575b5050505050905090565b6002805461049190610c7f565b80601f01602080910402602001604051908101604052809291908181526020018280546104bd90610c7f565b801561050a5780601f106104df5761010080835404028352916020019161050a565b820191906000526020600020905b8154815290600101906020018083116104ed57829003601f168201915b505050505081565b60005481565b60046020528060005260406000206000915054906101000a900460ff1681565b80600290816105479190610e5c565b5050565b6000600460008373ffffffffffffffffffffffffffffffffffffffff1673ffffffffffffffffffffffffffffffffffffffff16815260200190815260200160002060009054906101000a900460ff169050919050565b600460008373ffffffffffffffffffffffffffffffffffffffff1673ffffffffffffffffffffffffffffffffffffffff16815260200190815260200160002060009054906101000a900460ff1661062d576040517f08c379a000000000000000000000000000000000000000000000000000000000815260040161062490610fa0565b60405180910390fd5b80600560008473ffffffffffffffffffffffffffffffffffffffff1673ffffffffffffffffffffffffffffffffffffffff16815260200190815260200160002090816106799190610e5c565b505050565b600081519050919050565b600082825260208201905092915050565b6000819050602082019050919050565b600081519050919050565b600082825260208201905092915050565b60005b838110156106e45780820151818401526020810190506106c9565b60008484015250505050565b6000601f19601f8301169050919050565b600061070c826106aa565b61071681856106b5565b93506107268185602086016106c6565b61072f816106f0565b840191505092915050565b60006107468383610701565b905092915050565b6000602082019050919050565b60006107668261067e565b6107708185610689565b9350836020820285016107828561069a565b8060005b858110156107be578484038952815161079f858261073a565b94506107aa8361074e565b925060208a01995050600181019050610786565b50829750879550505050505092915050565b600060208201905081810360008301526107ea818461075b565b905092915050565b600082825260208201905092915050565b600061080e826106aa565b61081881856107f2565b93506108288185602086016106c6565b610831816106f0565b840191505092915050565b600060208201905081810360008301526108568184610803565b905092915050565b600081519050919050565b600082825260208201905092915050565b6000819050602082019050919050565b600073ffffffffffffffffffffffffffffffffffffffff82169050919050565b60006108b58261088a565b9050919050565b6108c5816108aa565b82525050565b60006108d783836108bc565b60208301905092915050565b6000602082019050919050565b60006108fb8261085e565b6109058185610869565b93506109108361087a565b8060005b8381101561094157815161092888826108cb565b9750610933836108e3565b925050600181019050610914565b5085935050505092915050565b6000602082019050818103600083015261096881846108f0565b905092915050565b6000819050919050565b61098381610970565b82525050565b600060208201905061099e600083018461097a565b92915050565b6000604051905090565b600080fd5b600080fd5b6109c1816108aa565b81146109cc57600080fd5b50565b6000813590506109de816109b8565b92915050565b6000602082840312156109fa576109f96109ae565b5b6000610a08848285016109cf565b91505092915050565b60008115159050919050565b610a2681610a11565b82525050565b6000602082019050610a416000830184610a1d565b92915050565b600080fd5b600080fd5b7f4e487b7100000000000000000000000000000000000000000000000000000000600052604160045260246000fd5b610a89826106f0565b810181811067ffffffffffffffff82111715610aa857610aa7610a51565b5b80604052505050565b6000610abb6109a4565b9050610ac78282610a80565b919050565b600067ffffffffffffffff821115610ae757610ae6610a51565b5b610af0826106f0565b9050602081019050919050565b82818337600083830152505050565b6000610b1f610b1a84610acc565b610ab1565b905082815260208101848484011115610b3b57610b3a610a4c565b5b610b46848285610afd565b509392505050565b600082601f830112610b6357610b62610a47565b5b8135610b73848260208601610b0c565b91505092915050565b600060208284031215610b9257610b916109ae565b5b600082013567ffffffffffffffff811115610bb057610baf6109b3565b5b610bbc84828501610b4e565b91505092915050565b60008060408385031215610bdc57610bdb6109ae565b5b6000610bea858286016109cf565b925050602083013567ffffffffffffffff811115610c0b57610c0a6109b3565b5b610c1785828601610b4e565b9150509250929050565b7f4e487b7100000000000000000000000000000000000000000000000000000000600052603260045260246000fd5b7f4e487b7100000000000000000000000000000000000000000000000000000000600052602260045260246000fd5b60006002820490506001821680610c9757607f821691505b602082108103610caa57610ca9610c50565b5b50919050565b60008190508160005260206000209050919050565b60006020601f8301049050919050565b600082821b905092915050565b600060088302610d127fffffffffffffffffffffffffffffffffffffffffffffffffffffffffffffffff82610cd5565b610d1c8683610cd5565b95508019841693508086168417925050509392505050565b6000819050919050565b6000610d59610d54610d4f84610970565b610d34565b610970565b9050919050565b6000819050919050565b610d7383610d3e565b610d87610d7f82610d60565b848454610ce2565b825550505050565b600090565b610d9c610d8f565b610da7818484610d6a565b505050565b5b81811015610dcb57610dc0600082610d94565b600181019050610dad565b5050565b601f821115610e1057610de181610cb0565b610dea84610cc5565b81016020851015610df9578190505b610e0d610e0585610cc5565b830182610dac565b50505b505050565b600082821c905092915050565b6000610e3360001984600802610e15565b1980831691505092915050565b6000610e4c8383610e22565b9150826002028217905092915050565b610e65826106aa565b67ffffffffffffffff811115610e7e57610e7d610a51565b5b610e888254610c7f565b610e93828285610dcf565b600060209050601f831160018114610ec65760008415610eb4578287015190505b610ebe8582610e40565b865550610f26565b601f198416610ed486610cb0565b60005b82811015610efc57848901518255600182019150602085019450602081019050610ed7565b86831015610f195784890151610f15601f891682610e22565b8355505b6001600288020188555050505b505050505050565b7f4661696c6564205375626d69743a207061727469636970616e74206973206e6f60008201527f7420726567697374657265640000000000000000000000000000000000000000602082015250565b6000610f8a602c836107f2565b9150610f9582610f2e565b604082019050919050565b60006020820190508181036000830152610fb981610f7d565b905091905056fea26469706673582212207202537ef15de4bffb9eeb2c8912bc3e957d27d927f66e4769c5af1e772441c864736f6c634300081c0033a264697066735822122027f6a9a9a82fe9c7d6eba77ac2424281328aa5df1887eae647aab6323703940a64736f6c634300081c0033",
  "linkReferences": {},
  "deployedLinkReferences": {}
}