{
  "_format": "hh-sol-artifact-1",
  "contractName": "Round",
  "sourceName": "contracts/RoundControl.sol",
  "abi": [
    {
      "inputs": [
        {
          "internalType": "uint256",
          "name": "_roundId",
          "type": "uint256"
        },
        {
          "internalType": "string",
          "name": "_globalModelCid",
          "type": "string"
        },
        {
          "internalType": "address[]",
          "name": "_participants",
          "type": "address[]"
        }
      ],
      "stateMutability": "nonpayable",
      "type": "constructor"
    },
    {
      "inputs": [
        {
          "internalType": "uint256",
          "name": "accuracy",
          "type": "uint256"
        },
        {
          "internalType": "uint256",
          "name": "f1_score",
          "type": "uint256"
        },
        {
          "internalType": "uint256",
          "name": "recall",
          "type": "uint256"
        },
        {
          "internalType": "uint256",
          "name": "precision",
          "type": "uint256"
        },
        {
          "internalType": "string",
          "name": "_nextRoundCid",
          "type": "string"
        }
      ],
      "name": "aggregate",
      "outputs": [],
      "stateMutability": "nonpayable",
      "type": "function"
    },
    {
      "inputs": [],
      "name": "getCids",
      "outputs": [
        {
          "internalType": "string[]",
          "name": "",
          "type": "string[]"
        }
      ],
      "stateMutability": "view",
      "type": "function"
    },
    {
      "inputs": [],
      "name": "getGlobalMetrics",
      "outputs": [
        {
          "internalType": "uint256",
          "name": "",
          "type": "uint256"
        },
        {
          "internalType": "uint256",
          "name": "",
          "type": "uint256"
        },
        {
          "internalType": "uint256",
          "name": "",
          "type": "uint256"
        },
        {
          "internalType": "uint256",
          "name": "",
          "type": "uint256"
        },
        {
          "internalType": "string",
          "name": "",
          "type": "string"
        }
      ],
      "stateMutability": "view",
      "type": "function"
    },
    {
      "inputs": [],
      "name": "getParticipants",
      "outputs": [
        {
          "internalType": "address[]",
          "name": "",
          "type": "address[]"
        }
      ],
      "stateMutability": "view",
      "type": "function"
    },
    {
      "inputs": [
        {
          "internalType": "address",
          "name": "participantId",
          "type": "address"
        }
      ],
      "name": "getParticipantsMetrics",
      "outputs": [
        {
          "internalType": "uint256",
          "name": "",
          "type": "uint256"
        },
        {
          "internalType": "uint256",
          "name": "",
          "type": "uint256"
        },
        {
          "internalType": "uint256",
          "name": "",
          "type": "uint256"
        },
        {
          "internalType": "uint256",
          "name": "",
          "type": "uint256"
        },
        {
          "internalType": "string",
          "name": "",
          "type": "string"
        }
      ],
      "stateMutability": "view",
      "type": "function"
    },
    {
      "inputs": [],
      "name": "globalMetrics",
      "outputs": [
        {
          "internalType": "uint256",
          "name": "accuracy",
          "type": "uint256"
        },
        {
          "internalType": "uint256",
          "name": "f1_score",
          "type": "uint256"
        },
        {
          "internalType": "uint256",
          "name": "recall",
          "type": "uint256"
        },
        {
          "internalType": "uint256",
          "name": "precision",
          "type": "uint256"
        },
        {
          "internalType": "string",
          "name": "cid",
          "type": "string"
        }
      ],
      "stateMutability": "view",
      "type": "function"
    },
    {
      "inputs": [],
      "name": "globalModelCid",
      "outputs": [
        {
          "internalType": "string",
          "name": "",
          "type": "string"
        }
      ],
      "stateMutability": "view",
      "type": "function"
    },
    {
      "inputs": [
        {
          "internalType": "address",
          "name": "",
          "type": "address"
        }
      ],
      "name": "isParticipant",
      "outputs": [
        {
          "internalType": "bool",
          "name": "",
          "type": "bool"
        }
      ],
      "stateMutability": "view",
      "type": "function"
    },
    {
      "inputs": [
        {
          "internalType": "address",
          "name": "participant",
          "type": "address"
        }
      ],
      "name": "isRegistered",
      "outputs": [
        {
          "internalType": "bool",
          "name": "",
          "type": "bool"
        }
      ],
      "stateMutability": "view",
      "type": "function"
    },
    {
      "inputs": [
        {
          "internalType": "address",
          "name": "",
          "type": "address"
        }
      ],
      "name": "participantMetrics",
      "outputs": [
        {
          "internalType": "uint256",
          "name": "accuracy",
          "type": "uint256"
        },
        {
          "internalType": "uint256",
          "name": "f1_score",
          "type": "uint256"
        },
        {
          "internalType": "uint256",
          "name": "recall",
          "type": "uint256"
        },
        {
          "internalType": "uint256",
          "name": "precision",
          "type": "uint256"
        },
        {
          "internalType": "string",
          "name": "cid",
          "type": "string"
        }
      ],
      "stateMutability": "view",
      "type": "function"
    },
    {
      "inputs": [],
      "name": "roundId",
      "outputs": [
        {
          "internalType": "uint256",
          "name": "",
          "type": "uint256"
        }
      ],
      "stateMutability": "view",
      "type": "function"
    },
    {
      "inputs": [
        {
          "internalType": "address",
          "name": "_participant",
          "type": "address"
        },
        {
          "internalType": "uint256",
          "name": "_accuracy",
          "type": "uint256"
        },
        {
          "internalType": "uint256",
          "name": "_f1_score",
          "type": "uint256"
        },
        {
          "internalType": "uint256",
          "name": "_recall",
          "type": "uint256"
        },
        {
          "internalType": "uint256",
          "name": "_precision",
          "type": "uint256"
        },
        {
          "internalType": "string",
          "name": "_cid",
          "type": "string"
        }
      ],
      "name": "submitModelCid",
      "outputs": [],
      "stateMutability": "nonpayable",
      "type": "function"
    }
  ],
  "bytecode": "0x60806040523480156200001157600080fd5b506040516200115a3803806200115a833981016040819052620000349162000244565b60008390556001620000478382620003b8565b5080516200005d906002906020840190620000db565b5060005b600254811015620000d1576001600860006002848154811062000088576200008862000484565b6000918252602080832091909101546001600160a01b031683528201929092526040019020805460ff191691151591909117905580620000c8816200049a565b91505062000061565b50505050620004c2565b82805482825590600052602060002090810192821562000133579160200282015b828111156200013357825182546001600160a01b0319166001600160a01b03909116178255602090920191600190910190620000fc565b506200014192915062000145565b5090565b5b8082111562000141576000815560010162000146565b634e487b7160e01b600052604160045260246000fd5b604051601f8201601f191681016001600160401b03811182821017156200019d576200019d6200015c565b604052919050565b600082601f830112620001b757600080fd5b815160206001600160401b03821115620001d557620001d56200015c565b8160051b620001e682820162000172565b92835284810182019282810190878511156200020157600080fd5b83870192505b84831015620002395782516001600160a01b0381168114620002295760008081fd5b8252918301919083019062000207565b979650505050505050565b6000806000606084860312156200025a57600080fd5b8351602080860151919450906001600160401b03808211156200027c57600080fd5b818701915087601f8301126200029157600080fd5b815181811115620002a657620002a66200015c565b620002ba601f8201601f1916850162000172565b8181528985838601011115620002cf57600080fd5b60005b82811015620002ef578481018601518282018701528501620002d2565b506000918101909401526040870151929450808311156200030f57600080fd5b50506200031f86828701620001a5565b9150509250925092565b600181811c908216806200033e57607f821691505b6020821081036200035f57634e487b7160e01b600052602260045260246000fd5b50919050565b601f821115620003b357600081815260208120601f850160051c810160208610156200038e5750805b601f850160051c820191505b81811015620003af578281556001016200039a565b5050505b505050565b81516001600160401b03811115620003d457620003d46200015c565b620003ec81620003e5845462000329565b8462000365565b602080601f8311600181146200042457600084156200040b5750858301515b600019600386901b1c1916600185901b178555620003af565b600085815260208120601f198616915b82811015620004555788860151825594840194600190910190840162000434565b5085821015620004745787850151600019600388901b60f8161c191681555b5050505050600190811b01905550565b634e487b7160e01b600052603260045260246000fd5b600060018201620004bb57634e487b7160e01b600052601160045260246000fd5b5060010190565b610c8880620004d26000396000f3fe608060405234801561001057600080fd5b50600436106100b45760003560e01c80638cd221c9116100715780638cd221c91461014257806391004a1714610159578063929066f51461016c578063b06506491461019f578063c3c5a547146101b2578063d76bb276146101de57600080fd5b806330a29d39146100b95780633d75d4af146100d75780634ffb5f7c146100fb5780635aa68ac0146101105780637821e39c146101255780638a2aec7c1461012d575b600080fd5b6100c16101e6565b6040516100ce9190610826565b60405180910390f35b6100ea6100e53660046108a4565b610347565b6040516100ce9594939291906108c6565b610103610400565b6040516100ce91906108fc565b61011861048e565b6040516100ce919061090f565b6100ea6104f0565b61014061013b3660046109ff565b610512565b005b61014b60005481565b6040519081526020016100ce565b610140610167366004610a63565b61053a565b61018f61017a3660046108a4565b60086020526000908152604090205460ff1681565b60405190151581526020016100ce565b6100ea6101ad3660046108a4565b610633565b61018f6101c03660046108a4565b6001600160a01b031660009081526008602052604090205460ff1690565b6100ea61071c565b60025460609060009067ffffffffffffffff8111156102075761020761095c565b60405190808252806020026020018201604052801561023a57816020015b60608152602001906001900390816102255790505b50905060005b60025481101561034157600960006002838154811061026157610261610ad6565b60009182526020808320909101546001600160a01b031683528201929092526040019020600401805461029390610aec565b80601f01602080910402602001604051908101604052809291908181526020018280546102bf90610aec565b801561030c5780601f106102e15761010080835404028352916020019161030c565b820191906000526020600020905b8154815290600101906020018083116102ef57829003601f168201915b505050505082828151811061032357610323610ad6565b6020026020010181905250808061033990610b20565b915050610240565b50919050565b60096020526000908152604090208054600182015460028301546003840154600485018054949593949293919261037d90610aec565b80601f01602080910402602001604051908101604052809291908181526020018280546103a990610aec565b80156103f65780601f106103cb576101008083540402835291602001916103f6565b820191906000526020600020905b8154815290600101906020018083116103d957829003601f168201915b5050505050905085565b6001805461040d90610aec565b80601f016020809104026020016040519081016040528092919081815260200182805461043990610aec565b80156104865780601f1061045b57610100808354040283529160200191610486565b820191906000526020600020905b81548152906001019060200180831161046957829003601f168201915b505050505081565b606060028054806020026020016040519081016040528092919081815260200182805480156104e657602002820191906000526020600020905b81546001600160a01b031681526001909101906020018083116104c8575b5050505050905090565b6003805460045460055460065460078054949593949293919261037d90610aec565b600385905560048490556005839055600682905560076105328282610b92565b505050505050565b6001600160a01b03861660009081526008602052604090205460ff166105bb5760405162461bcd60e51b815260206004820152602c60248201527f4661696c6564205375626d69743a207061727469636970616e74206973206e6f60448201526b1d081c9959da5cdd195c995960a21b606482015260840160405180910390fd5b6040805160a081018252868152602080820187815282840187815260608401878152608085018781526001600160a01b038d166000908152600990955295909320845181559151600183015551600282015590516003820155915190919060048201906106289082610b92565b505050505050505050565b6000806000806060600060096000886001600160a01b03166001600160a01b03168152602001908152602001600020905080600001548160010154826002015483600301548460040180805461068890610aec565b80601f01602080910402602001604051908101604052809291908181526020018280546106b490610aec565b80156107015780601f106106d657610100808354040283529160200191610701565b820191906000526020600020905b8154815290600101906020018083116106e457829003601f168201915b50505050509050955095509550955095505091939590929450565b600080600080606060006003905080600001548160010154826002015483600301548460040180805461074e90610aec565b80601f016020809104026020016040519081016040528092919081815260200182805461077a90610aec565b80156107c75780601f1061079c576101008083540402835291602001916107c7565b820191906000526020600020905b8154815290600101906020018083116107aa57829003601f168201915b5050505050905095509550955095509550509091929394565b6000815180845260005b81811015610806576020818501810151868301820152016107ea565b506000602082860101526020601f19601f83011685010191505092915050565b6000602080830181845280855180835260408601915060408160051b870101925083870160005b8281101561087b57603f198886030184526108698583516107e0565b9450928501929085019060010161084d565b5092979650505050505050565b80356001600160a01b038116811461089f57600080fd5b919050565b6000602082840312156108b657600080fd5b6108bf82610888565b9392505050565b85815284602082015283604082015282606082015260a0608082015260006108f160a08301846107e0565b979650505050505050565b6020815260006108bf60208301846107e0565b6020808252825182820181905260009190848201906040850190845b818110156109505783516001600160a01b03168352928401929184019160010161092b565b50909695505050505050565b634e487b7160e01b600052604160045260246000fd5b600082601f83011261098357600080fd5b813567ffffffffffffffff8082111561099e5761099e61095c565b604051601f8301601f19908116603f011681019082821181831017156109c6576109c661095c565b816040528381528660208588010111156109df57600080fd5b836020870160208301376000602085830101528094505050505092915050565b600080600080600060a08688031215610a1757600080fd5b85359450602086013593506040860135925060608601359150608086013567ffffffffffffffff811115610a4a57600080fd5b610a5688828901610972565b9150509295509295909350565b60008060008060008060c08789031215610a7c57600080fd5b610a8587610888565b95506020870135945060408701359350606087013592506080870135915060a087013567ffffffffffffffff811115610abd57600080fd5b610ac989828a01610972565b9150509295509295509295565b634e487b7160e01b600052603260045260246000fd5b600181811c90821680610b0057607f821691505b60208210810361034157634e487b7160e01b600052602260045260246000fd5b600060018201610b4057634e487b7160e01b600052601160045260246000fd5b5060010190565b601f821115610b8d57600081815260208120601f850160051c81016020861015610b6e5750805b601f850160051c820191505b8181101561053257828155600101610b7a565b505050565b815167ffffffffffffffff811115610bac57610bac61095c565b610bc081610bba8454610aec565b84610b47565b602080601f831160018114610bf55760008415610bdd5750858301515b600019600386901b1c1916600185901b178555610532565b600085815260208120601f198616915b82811015610c2457888601518255948401946001909101908401610c05565b5085821015610c425787850151600019600388901b60f8161c191681555b5050505050600190811b0190555056fea26469706673582212207864e644f87975afe8581de46cf1cfd18c3bd602b807d8106472d66575f85e3464736f6c63430008140033",
  "linkReferences": {},
  "deployedLinkReferences": {}
}