{
  "_format": "hh-sol-artifact-1",
  "contractName": "RoundControl",
  "sourceName": "contracts/RoundControl.sol",
  "abi": [
    {
      "inputs": [
        {
          "internalType": "string",
          "name": "_initialGlobalModelCid",
          "type": "string"
        },
        {
          "internalType": "address",
          "name": "_registrationContract",
          "type": "address"
        }
      ],
      "stateMutability": "nonpayable",
      "type": "constructor"
    },
    {
      "anonymous": false,
      "inputs": [
        {
          "indexed": false,
          "internalType": "uint256",
          "name": "roundId",
          "type": "uint256"
        }
      ],
      "name": "RoundEnded",
      "type": "event"
    },
    {
      "anonymous": false,
      "inputs": [
        {
          "indexed": false,
          "internalType": "uint256",
          "name": "roundId",
          "type": "uint256"
        }
      ],
      "name": "RoundStarted",
      "type": "event"
    },
    {
      "inputs": [],
      "name": "active",
      "outputs": [
        {
          "internalType": "bool",
          "name": "",
          "type": "bool"
        }
      ],
      "stateMutability": "view",
      "type": "function"
    },
    {
      "inputs": [
        {
          "internalType": "uint64",
          "name": "_noOfParticipants",
          "type": "uint64"
        }
      ],
      "name": "createRound",
      "outputs": [
        {
          "internalType": "uint256",
          "name": "",
          "type": "uint256"
        }
      ],
      "stateMutability": "nonpayable",
      "type": "function"
    },
    {
      "inputs": [],
      "name": "currentRoundId",
      "outputs": [
        {
          "internalType": "uint256",
          "name": "",
          "type": "uint256"
        }
      ],
      "stateMutability": "view",
      "type": "function"
    },
    {
      "inputs": [],
      "name": "endRound",
      "outputs": [],
      "stateMutability": "nonpayable",
      "type": "function"
    },
    {
      "inputs": [
        {
          "internalType": "uint256",
          "name": "_roundId",
          "type": "uint256"
        }
      ],
      "name": "getRound",
      "outputs": [
        {
          "internalType": "address",
          "name": "",
          "type": "address"
        }
      ],
      "stateMutability": "view",
      "type": "function"
    },
    {
      "inputs": [],
      "name": "owner",
      "outputs": [
        {
          "internalType": "address",
          "name": "",
          "type": "address"
        }
      ],
      "stateMutability": "view",
      "type": "function"
    },
    {
      "inputs": [
        {
          "internalType": "string",
          "name": "_initialGlobalModelCid",
          "type": "string"
        }
      ],
      "name": "setInitialGlobalModleCid",
      "outputs": [],
      "stateMutability": "nonpayable",
      "type": "function"
    },
    {
      "inputs": [
        {
          "internalType": "bool",
          "name": "_active",
          "type": "bool"
        }
      ],
      "name": "setRoundActive",
      "outputs": [],
      "stateMutability": "nonpayable",
      "type": "function"
    },
    {
      "inputs": [
        {
          "internalType": "uint64",
          "name": "_noOfParticipants",
          "type": "uint64"
        }
      ],
      "name": "startRound",
      "outputs": [
        {
          "internalType": "uint256",
          "name": "",
          "type": "uint256"
        }
      ],
      "stateMutability": "nonpayable",
      "type": "function"
    },
    {
      "inputs": [
        {
          "internalType": "string",
          "name": "cid",
          "type": "string"
        }
      ],
      "name": "submitParticipantCid",
      "outputs": [],
      "stateMutability": "nonpayable",
      "type": "function"
    }
  ],
  "bytecode": "0x608060405234801561001057600080fd5b50604051613799380380613799833981810160405281019061003291906102bf565b6000600160006101000a81548160ff02191690831515021790555060008081905550336001806101000a81548173ffffffffffffffffffffffffffffffffffffffff021916908373ffffffffffffffffffffffffffffffffffffffff16021790555081600290816100a3919061053c565b5080600360006101000a81548173ffffffffffffffffffffffffffffffffffffffff021916908373ffffffffffffffffffffffffffffffffffffffff160217905550505061060e565b6000604051905090565b600080fd5b600080fd5b600080fd5b600080fd5b6000601f19601f8301169050919050565b7f4e487b7100000000000000000000000000000000000000000000000000000000600052604160045260246000fd5b6101538261010a565b810181811067ffffffffffffffff821117156101725761017161011b565b5b80604052505050565b60006101856100ec565b9050610191828261014a565b919050565b600067ffffffffffffffff8211156101b1576101b061011b565b5b6101ba8261010a565b9050602081019050919050565b60005b838110156101e55780820151818401526020810190506101ca565b60008484015250505050565b60006102046101ff84610196565b61017b565b9050828152602081018484840111156102205761021f610105565b5b61022b8482856101c7565b509392505050565b600082601f83011261024857610247610100565b5b81516102588482602086016101f1565b91505092915050565b600073ffffffffffffffffffffffffffffffffffffffff82169050919050565b600061028c82610261565b9050919050565b61029c81610281565b81146102a757600080fd5b50565b6000815190506102b981610293565b92915050565b600080604083850312156102d6576102d56100f6565b5b600083015167ffffffffffffffff8111156102f4576102f36100fb565b5b61030085828601610233565b9250506020610311858286016102aa565b9150509250929050565b600081519050919050565b7f4e487b7100000000000000000000000000000000000000000000000000000000600052602260045260246000fd5b6000600282049050600182168061036d57607f821691505b6020821081036103805761037f610326565b5b50919050565b60008190508160005260206000209050919050565b60006020601f8301049050919050565b600082821b905092915050565b6000600883026103e87fffffffffffffffffffffffffffffffffffffffffffffffffffffffffffffffff826103ab565b6103f286836103ab565b95508019841693508086168417925050509392505050565b6000819050919050565b6000819050919050565b600061043961043461042f8461040a565b610414565b61040a565b9050919050565b6000819050919050565b6104538361041e565b61046761045f82610440565b8484546103b8565b825550505050565b600090565b61047c61046f565b61048781848461044a565b505050565b5b818110156104ab576104a0600082610474565b60018101905061048d565b5050565b601f8211156104f0576104c181610386565b6104ca8461039b565b810160208510156104d9578190505b6104ed6104e58561039b565b83018261048c565b50505b505050565b600082821c905092915050565b6000610513600019846008026104f5565b1980831691505092915050565b600061052c8383610502565b9150826002028217905092915050565b6105458261031b565b67ffffffffffffffff81111561055e5761055d61011b565b5b6105688254610355565b6105738282856104af565b600060209050601f8311600181146105a65760008415610594578287015190505b61059e8582610520565b865550610606565b601f1984166105b486610386565b60005b828110156105dc578489015182556001820191506020850194506020810190506105b7565b868310156105f957848901516105f5601f891682610502565b8355505b6001600288020188555050505b505050505050565b61317c8061061d6000396000f3fe608060405234801561001057600080fd5b506004361061009e5760003560e01c8063749aa2d911610066578063749aa2d9146101595780638da5cb5b146101635780638f1327c0146101815780639cbe5efd146101b1578063b0a242e8146101cf5761009e565b806302fb0c5e146100a3578063323777d4146100c15780634136de12146100dd578063512dec391461010d5780635bfe14f914610129575b600080fd5b6100ab6101eb565b6040516100b89190610add565b60405180910390f35b6100db60048036038101906100d69190610c52565b6101fe565b005b6100f760048036038101906100f29190610cdb565b6102f1565b6040516101049190610d21565b60405180910390f35b61012760048036038101906101229190610d68565b610438565b005b610143600480360381019061013e9190610cdb565b6104e3565b6040516101509190610d21565b60405180910390f35b61016161085b565b005b61016b610996565b6040516101789190610dd6565b60405180910390f35b61019b60048036038101906101969190610e1d565b6109ba565b6040516101a89190610dd6565b60405180910390f35b6101b96109f7565b6040516101c69190610d21565b60405180910390f35b6101e960048036038101906101e49190610c52565b6109fd565b005b600160009054906101000a900460ff1681565b600160009054906101000a900460ff1661024d576040517f08c379a000000000000000000000000000000000000000000000000000000000815260040161024490610ea7565b60405180910390fd5b600460008054815260200190815260200160002060009054906101000a900473ffffffffffffffffffffffffffffffffffffffff1673ffffffffffffffffffffffffffffffffffffffff1663ffbe9f9933836040518363ffffffff1660e01b81526004016102bc929190610f35565b600060405180830381600087803b1580156102d657600080fd5b505af11580156102ea573d6000803e3d6000fd5b5050505050565b600060018054906101000a900473ffffffffffffffffffffffffffffffffffffffff1673ffffffffffffffffffffffffffffffffffffffff163373ffffffffffffffffffffffffffffffffffffffff1614610381576040517f08c379a000000000000000000000000000000000000000000000000000000000815260040161037890610fb1565b60405180910390fd5b600160009054906101000a900460ff16156103d1576040517f08c379a00000000000000000000000000000000000000000000000000000000081526004016103c890611043565b60405180910390fd5b6103da826104e3565b5060018060006101000a81548160ff0219169083151502179055507f33a701182892fd888ed152ca2ac23771a32e814469b7cd255965471e1af3a6596000546040516104269190610d21565b60405180910390a16000549050919050565b60018054906101000a900473ffffffffffffffffffffffffffffffffffffffff1673ffffffffffffffffffffffffffffffffffffffff163373ffffffffffffffffffffffffffffffffffffffff16146104c6576040517f08c379a00000000000000000000000000000000000000000000000000000000081526004016104bd90610fb1565b60405180910390fd5b80600160006101000a81548160ff02191690831515021790555050565b600060018054906101000a900473ffffffffffffffffffffffffffffffffffffffff1673ffffffffffffffffffffffffffffffffffffffff163373ffffffffffffffffffffffffffffffffffffffff1614610573576040517f08c379a000000000000000000000000000000000000000000000000000000000815260040161056a90610fb1565b60405180910390fd5b600160009054906101000a900460ff16156105c3576040517f08c379a00000000000000000000000000000000000000000000000000000000081526004016105ba906110d5565b60405180910390fd5b6000805490506000600360009054906101000a900473ffffffffffffffffffffffffffffffffffffffff1673ffffffffffffffffffffffffffffffffffffffff1663985a2f92856040518263ffffffff1660e01b81526004016106269190611130565b600060405180830381865afa158015610643573d6000803e3d6000fd5b505050506040513d6000823e3d601f19601f8201168201806040525081019061066c919061123f565b90506000820361070d576000805460028360405161068990610ab5565b6106959392919061143f565b604051809103906000f0801580156106b1573d6000803e3d6000fd5b50905080600460008054815260200190815260200160002060006101000a81548173ffffffffffffffffffffffffffffffffffffffff021916908373ffffffffffffffffffffffffffffffffffffffff16021790555050610851565b600080546004600060018661072291906114b3565b815260200190815260200160002060009054906101000a900473ffffffffffffffffffffffffffffffffffffffff1673ffffffffffffffffffffffffffffffffffffffff166379dda9186040518163ffffffff1660e01b8152600401600060405180830381865afa15801561079b573d6000803e3d6000fd5b505050506040513d6000823e3d601f19601f820116820180604052508101906107c49190611557565b836040516107d190610ab5565b6107dd939291906115a0565b604051809103906000f0801580156107f9573d6000803e3d6000fd5b50905080600460008054815260200190815260200160002060006101000a81548173ffffffffffffffffffffffffffffffffffffffff021916908373ffffffffffffffffffffffffffffffffffffffff160217905550505b8192505050919050565b60018054906101000a900473ffffffffffffffffffffffffffffffffffffffff1673ffffffffffffffffffffffffffffffffffffffff163373ffffffffffffffffffffffffffffffffffffffff16146108e9576040517f08c379a00000000000000000000000000000000000000000000000000000000081526004016108e090610fb1565b60405180910390fd5b600160009054906101000a900460ff16610938576040517f08c379a000000000000000000000000000000000000000000000000000000000815260040161092f90611657565b60405180910390fd5b6000600160006101000a81548160ff0219169083151502179055507faa97d4a7b3afec5f55c25ca8593dde6929d4455fad650a16fa4334004293a6186000546040516109849190610d21565b60405180910390a1610994610a9e565b565b60018054906101000a900473ffffffffffffffffffffffffffffffffffffffff1681565b60006004600083815260200190815260200160002060009054906101000a900473ffffffffffffffffffffffffffffffffffffffff169050919050565b60005481565b60018054906101000a900473ffffffffffffffffffffffffffffffffffffffff1673ffffffffffffffffffffffffffffffffffffffff163373ffffffffffffffffffffffffffffffffffffffff1614610a8b576040517f08c379a0000000000000000000000000000000000000000000000000000000008152600401610a8290610fb1565b60405180910390fd5b8060029081610a9a9190611804565b5050565b6001600054610aad91906118d6565b600081905550565b61183c8061190b83390190565b60008115159050919050565b610ad781610ac2565b82525050565b6000602082019050610af26000830184610ace565b92915050565b6000604051905090565b600080fd5b600080fd5b600080fd5b600080fd5b6000601f19601f8301169050919050565b7f4e487b7100000000000000000000000000000000000000000000000000000000600052604160045260246000fd5b610b5f82610b16565b810181811067ffffffffffffffff82111715610b7e57610b7d610b27565b5b80604052505050565b6000610b91610af8565b9050610b9d8282610b56565b919050565b600067ffffffffffffffff821115610bbd57610bbc610b27565b5b610bc682610b16565b9050602081019050919050565b82818337600083830152505050565b6000610bf5610bf084610ba2565b610b87565b905082815260208101848484011115610c1157610c10610b11565b5b610c1c848285610bd3565b509392505050565b600082601f830112610c3957610c38610b0c565b5b8135610c49848260208601610be2565b91505092915050565b600060208284031215610c6857610c67610b02565b5b600082013567ffffffffffffffff811115610c8657610c85610b07565b5b610c9284828501610c24565b91505092915050565b600067ffffffffffffffff82169050919050565b610cb881610c9b565b8114610cc357600080fd5b50565b600081359050610cd581610caf565b92915050565b600060208284031215610cf157610cf0610b02565b5b6000610cff84828501610cc6565b91505092915050565b6000819050919050565b610d1b81610d08565b82525050565b6000602082019050610d366000830184610d12565b92915050565b610d4581610ac2565b8114610d5057600080fd5b50565b600081359050610d6281610d3c565b92915050565b600060208284031215610d7e57610d7d610b02565b5b6000610d8c84828501610d53565b91505092915050565b600073ffffffffffffffffffffffffffffffffffffffff82169050919050565b6000610dc082610d95565b9050919050565b610dd081610db5565b82525050565b6000602082019050610deb6000830184610dc7565b92915050565b610dfa81610d08565b8114610e0557600080fd5b50565b600081359050610e1781610df1565b92915050565b600060208284031215610e3357610e32610b02565b5b6000610e4184828501610e08565b91505092915050565b600082825260208201905092915050565b7f4e6f2061637469766520726f756e640000000000000000000000000000000000600082015250565b6000610e91600f83610e4a565b9150610e9c82610e5b565b602082019050919050565b60006020820190508181036000830152610ec081610e84565b9050919050565b600081519050919050565b60005b83811015610ef0578082015181840152602081019050610ed5565b60008484015250505050565b6000610f0782610ec7565b610f118185610e4a565b9350610f21818560208601610ed2565b610f2a81610b16565b840191505092915050565b6000604082019050610f4a6000830185610dc7565b8181036020830152610f5c8184610efc565b90509392505050565b7f4e6f7420636f6e7472616374206f776e65720000000000000000000000000000600082015250565b6000610f9b601283610e4a565b9150610fa682610f65565b602082019050919050565b60006020820190508181036000830152610fca81610f8e565b9050919050565b7f4661696c65642053746172743a20526f756e642069732063757272656e746c7960008201527f2072756e6e696e67000000000000000000000000000000000000000000000000602082015250565b600061102d602883610e4a565b915061103882610fd1565b604082019050919050565b6000602082019050818103600083015261105c81611020565b9050919050565b7f4661696c6564204372656174653a20526f756e642069732043757272656e746c60008201527f7920616374697665000000000000000000000000000000000000000000000000602082015250565b60006110bf602883610e4a565b91506110ca82611063565b604082019050919050565b600060208201905081810360008301526110ee816110b2565b9050919050565b6000819050919050565b600061111a61111561111084610c9b565b6110f5565b610d08565b9050919050565b61112a816110ff565b82525050565b60006020820190506111456000830184611121565b92915050565b600067ffffffffffffffff82111561116657611165610b27565b5b602082029050602081019050919050565b600080fd5b61118581610db5565b811461119057600080fd5b50565b6000815190506111a28161117c565b92915050565b60006111bb6111b68461114b565b610b87565b905080838252602082019050602084028301858111156111de576111dd611177565b5b835b8181101561120757806111f38882611193565b8452602084019350506020810190506111e0565b5050509392505050565b600082601f83011261122657611225610b0c565b5b81516112368482602086016111a8565b91505092915050565b60006020828403121561125557611254610b02565b5b600082015167ffffffffffffffff81111561127357611272610b07565b5b61127f84828501611211565b91505092915050565b7f4e487b7100000000000000000000000000000000000000000000000000000000600052602260045260246000fd5b600060028204905060018216806112cf57607f821691505b6020821081036112e2576112e1611288565b5b50919050565b60008190508160005260206000209050919050565b6000815461130a816112b7565b6113148186610e4a565b9450600182166000811461132f576001811461134557611378565b60ff198316865281151560200286019350611378565b61134e856112e8565b60005b8381101561137057815481890152600182019150602081019050611351565b808801955050505b50505092915050565b600081519050919050565b600082825260208201905092915050565b6000819050602082019050919050565b6113b681610db5565b82525050565b60006113c883836113ad565b60208301905092915050565b6000602082019050919050565b60006113ec82611381565b6113f6818561138c565b93506114018361139d565b8060005b8381101561143257815161141988826113bc565b9750611424836113d4565b925050600181019050611405565b5085935050505092915050565b60006060820190506114546000830186610d12565b818103602083015261146681856112fd565b9050818103604083015261147a81846113e1565b9050949350505050565b7f4e487b7100000000000000000000000000000000000000000000000000000000600052601160045260246000fd5b60006114be82610d08565b91506114c983610d08565b92508282039050818111156114e1576114e0611484565b5b92915050565b60006114fa6114f584610ba2565b610b87565b90508281526020810184848401111561151657611515610b11565b5b611521848285610ed2565b509392505050565b600082601f83011261153e5761153d610b0c565b5b815161154e8482602086016114e7565b91505092915050565b60006020828403121561156d5761156c610b02565b5b600082015167ffffffffffffffff81111561158b5761158a610b07565b5b61159784828501611529565b91505092915050565b60006060820190506115b56000830186610d12565b81810360208301526115c78185610efc565b905081810360408301526115db81846113e1565b9050949350505050565b7f4661696c656420656e643a204e6f2061637469766520726f756e64206375727260008201527f656e746c7920696e2070726f6772657373000000000000000000000000000000602082015250565b6000611641603183610e4a565b915061164c826115e5565b604082019050919050565b6000602082019050818103600083015261167081611634565b9050919050565b60006020601f8301049050919050565b600082821b905092915050565b6000600883026116c47fffffffffffffffffffffffffffffffffffffffffffffffffffffffffffffffff82611687565b6116ce8683611687565b95508019841693508086168417925050509392505050565b60006117016116fc6116f784610d08565b6110f5565b610d08565b9050919050565b6000819050919050565b61171b836116e6565b61172f61172782611708565b848454611694565b825550505050565b600090565b611744611737565b61174f818484611712565b505050565b5b818110156117735761176860008261173c565b600181019050611755565b5050565b601f8211156117b857611789816112e8565b61179284611677565b810160208510156117a1578190505b6117b56117ad85611677565b830182611754565b50505b505050565b600082821c905092915050565b60006117db600019846008026117bd565b1980831691505092915050565b60006117f483836117ca565b9150826002028217905092915050565b61180d82610ec7565b67ffffffffffffffff81111561182657611825610b27565b5b61183082546112b7565b61183b828285611777565b600060209050601f83116001811461186e576000841561185c578287015190505b61186685826117e8565b8655506118ce565b601f19841661187c866112e8565b60005b828110156118a45784890151825560018201915060208501945060208101905061187f565b868310156118c157848901516118bd601f8916826117ca565b8355505b6001600288020188555050505b505050505050565b60006118e182610d08565b91506118ec83610d08565b925082820190508082111561190457611903611484565b5b9291505056fe608060405234801561001057600080fd5b5060405161183c38038061183c83398181016040528101906100329190610494565b8260008190555081600190816100489190610736565b50806003908051906020019061005f92919061011c565b5060005b600380549050811015610113576001600460006003848154811061008a57610089610808565b5b9060005260206000200160009054906101000a900473ffffffffffffffffffffffffffffffffffffffff1673ffffffffffffffffffffffffffffffffffffffff1673ffffffffffffffffffffffffffffffffffffffff16815260200190815260200160002060006101000a81548160ff0219169083151502179055508080600101915050610063565b50505050610837565b828054828255906000526020600020908101928215610195579160200282015b828111156101945782518260006101000a81548173ffffffffffffffffffffffffffffffffffffffff021916908373ffffffffffffffffffffffffffffffffffffffff1602179055509160200191906001019061013c565b5b5090506101a291906101a6565b5090565b5b808211156101bf5760008160009055506001016101a7565b5090565b6000604051905090565b600080fd5b600080fd5b6000819050919050565b6101ea816101d7565b81146101f557600080fd5b50565b600081519050610207816101e1565b92915050565b600080fd5b600080fd5b6000601f19601f8301169050919050565b7f4e487b7100000000000000000000000000000000000000000000000000000000600052604160045260246000fd5b61026082610217565b810181811067ffffffffffffffff8211171561027f5761027e610228565b5b80604052505050565b60006102926101c3565b905061029e8282610257565b919050565b600067ffffffffffffffff8211156102be576102bd610228565b5b6102c782610217565b9050602081019050919050565b60005b838110156102f25780820151818401526020810190506102d7565b60008484015250505050565b600061031161030c846102a3565b610288565b90508281526020810184848401111561032d5761032c610212565b5b6103388482856102d4565b509392505050565b600082601f8301126103555761035461020d565b5b81516103658482602086016102fe565b91505092915050565b600067ffffffffffffffff82111561038957610388610228565b5b602082029050602081019050919050565b600080fd5b600073ffffffffffffffffffffffffffffffffffffffff82169050919050565b60006103ca8261039f565b9050919050565b6103da816103bf565b81146103e557600080fd5b50565b6000815190506103f7816103d1565b92915050565b600061041061040b8461036e565b610288565b905080838252602082019050602084028301858111156104335761043261039a565b5b835b8181101561045c578061044888826103e8565b845260208401935050602081019050610435565b5050509392505050565b600082601f83011261047b5761047a61020d565b5b815161048b8482602086016103fd565b91505092915050565b6000806000606084860312156104ad576104ac6101cd565b5b60006104bb868287016101f8565b935050602084015167ffffffffffffffff8111156104dc576104db6101d2565b5b6104e886828701610340565b925050604084015167ffffffffffffffff811115610509576105086101d2565b5b61051586828701610466565b9150509250925092565b600081519050919050565b7f4e487b7100000000000000000000000000000000000000000000000000000000600052602260045260246000fd5b6000600282049050600182168061057157607f821691505b6020821081036105845761058361052a565b5b50919050565b60008190508160005260206000209050919050565b60006020601f8301049050919050565b600082821b905092915050565b6000600883026105ec7fffffffffffffffffffffffffffffffffffffffffffffffffffffffffffffffff826105af565b6105f686836105af565b95508019841693508086168417925050509392505050565b6000819050919050565b600061063361062e610629846101d7565b61060e565b6101d7565b9050919050565b6000819050919050565b61064d83610618565b6106616106598261063a565b8484546105bc565b825550505050565b600090565b610676610669565b610681818484610644565b505050565b5b818110156106a55761069a60008261066e565b600181019050610687565b5050565b601f8211156106ea576106bb8161058a565b6106c48461059f565b810160208510156106d3578190505b6106e76106df8561059f565b830182610686565b50505b505050565b600082821c905092915050565b600061070d600019846008026106ef565b1980831691505092915050565b600061072683836106fc565b9150826002028217905092915050565b61073f8261051f565b67ffffffffffffffff81111561075857610757610228565b5b6107628254610559565b61076d8282856106a9565b600060209050601f8311600181146107a0576000841561078e578287015190505b610798858261071a565b865550610800565b601f1984166107ae8661058a565b60005b828110156107d6578489015182556001820191506020850194506020810190506107b1565b868310156107f357848901516107ef601f8916826106fc565b8355505b6001600288020188555050505b505050505050565b7f4e487b7100000000000000000000000000000000000000000000000000000000600052603260045260246000fd5b610ff6806108466000396000f3fe608060405234801561001057600080fd5b50600436106100935760003560e01c80638cd221c9116100665780638cd221c914610110578063929066f51461012e578063b23ce5ac1461015e578063c3c5a5471461017a578063ffbe9f99146101aa57610093565b806330a29d39146100985780634ffb5f7c146100b65780635aa68ac0146100d457806379dda918146100f2575b600080fd5b6100a06101c6565b6040516100ad91906107d0565b60405180910390f35b6100be610368565b6040516100cb919061083c565b60405180910390f35b6100dc6103f6565b6040516100e9919061094e565b60405180910390f35b6100fa610484565b604051610107919061083c565b60405180910390f35b610118610512565b6040516101259190610989565b60405180910390f35b610148600480360381019061014391906109e4565b610518565b6040516101559190610a2c565b60405180910390f35b61017860048036038101906101739190610b7c565b610538565b005b610194600480360381019061018f91906109e4565b61054b565b6040516101a19190610a2c565b60405180910390f35b6101c460048036038101906101bf9190610bc5565b6105a1565b005b6060600060038054905067ffffffffffffffff8111156101e9576101e8610a51565b5b60405190808252806020026020018201604052801561021c57816020015b60608152602001906001900390816102075790505b50905060005b60038054905081101561036057600560006003838154811061024757610246610c21565b5b9060005260206000200160009054906101000a900473ffffffffffffffffffffffffffffffffffffffff1673ffffffffffffffffffffffffffffffffffffffff1673ffffffffffffffffffffffffffffffffffffffff16815260200190815260200160002080546102b790610c7f565b80601f01602080910402602001604051908101604052809291908181526020018280546102e390610c7f565b80156103305780601f1061030557610100808354040283529160200191610330565b820191906000526020600020905b81548152906001019060200180831161031357829003601f168201915b505050505082828151811061034857610347610c21565b5b60200260200101819052508080600101915050610222565b508091505090565b6001805461037590610c7f565b80601f01602080910402602001604051908101604052809291908181526020018280546103a190610c7f565b80156103ee5780601f106103c3576101008083540402835291602001916103ee565b820191906000526020600020905b8154815290600101906020018083116103d157829003601f168201915b505050505081565b6060600380548060200260200160405190810160405280929190818152602001828054801561047a57602002820191906000526020600020905b8160009054906101000a900473ffffffffffffffffffffffffffffffffffffffff1673ffffffffffffffffffffffffffffffffffffffff1681526020019060010190808311610430575b5050505050905090565b6002805461049190610c7f565b80601f01602080910402602001604051908101604052809291908181526020018280546104bd90610c7f565b801561050a5780601f106104df5761010080835404028352916020019161050a565b820191906000526020600020905b8154815290600101906020018083116104ed57829003601f168201915b505050505081565b60005481565b60046020528060005260406000206000915054906101000a900460ff1681565b80600290816105479190610e5c565b5050565b6000600460008373ffffffffffffffffffffffffffffffffffffffff1673ffffffffffffffffffffffffffffffffffffffff16815260200190815260200160002060009054906101000a900460ff169050919050565b600460008373ffffffffffffffffffffffffffffffffffffffff1673ffffffffffffffffffffffffffffffffffffffff16815260200190815260200160002060009054906101000a900460ff1661062d576040517f08c379a000000000000000000000000000000000000000000000000000000000815260040161062490610fa0565b60405180910390fd5b80600560008473ffffffffffffffffffffffffffffffffffffffff1673ffffffffffffffffffffffffffffffffffffffff16815260200190815260200160002090816106799190610e5c565b505050565b600081519050919050565b600082825260208201905092915050565b6000819050602082019050919050565b600081519050919050565b600082825260208201905092915050565b60005b838110156106e45780820151818401526020810190506106c9565b60008484015250505050565b6000601f19601f8301169050919050565b600061070c826106aa565b61071681856106b5565b93506107268185602086016106c6565b61072f816106f0565b840191505092915050565b60006107468383610701565b905092915050565b6000602082019050919050565b60006107668261067e565b6107708185610689565b9350836020820285016107828561069a565b8060005b858110156107be578484038952815161079f858261073a565b94506107aa8361074e565b925060208a01995050600181019050610786565b50829750879550505050505092915050565b600060208201905081810360008301526107ea818461075b565b905092915050565b600082825260208201905092915050565b600061080e826106aa565b61081881856107f2565b93506108288185602086016106c6565b610831816106f0565b840191505092915050565b600060208201905081810360008301526108568184610803565b905092915050565b600081519050919050565b600082825260208201905092915050565b6000819050602082019050919050565b600073ffffffffffffffffffffffffffffffffffffffff82169050919050565b60006108b58261088a565b9050919050565b6108c5816108aa565b82525050565b60006108d783836108bc565b60208301905092915050565b6000602082019050919050565b60006108fb8261085e565b6109058185610869565b93506109108361087a565b8060005b8381101561094157815161092888826108cb565b9750610933836108e3565b925050600181019050610914565b5085935050505092915050565b6000602082019050818103600083015261096881846108f0565b905092915050565b6000819050919050565b61098381610970565b82525050565b600060208201905061099e600083018461097a565b92915050565b6000604051905090565b600080fd5b600080fd5b6109c1816108aa565b81146109cc57600080fd5b50565b6000813590506109de816109b8565b92915050565b6000602082840312156109fa576109f96109ae565b5b6000610a08848285016109cf565b91505092915050565b60008115159050919050565b610a2681610a11565b82525050565b6000602082019050610a416000830184610a1d565b92915050565b600080fd5b600080fd5b7f4e487b7100000000000000000000000000000000000000000000000000000000600052604160045260246000fd5b610a89826106f0565b810181811067ffffffffffffffff82111715610aa857610aa7610a51565b5b80604052505050565b6000610abb6109a4565b9050610ac78282610a80565b919050565b600067ffffffffffffffff821115610ae757610ae6610a51565b5b610af0826106f0565b9050602081019050919050565b82818337600083830152505050565b6000610b1f610b1a84610acc565b610ab1565b905082815260208101848484011115610b3b57610b3a610a4c565b5b610b46848285610afd565b509392505050565b600082601f830112610b6357610b62610a47565b5b8135610b73848260208601610b0c565b91505092915050565b600060208284031215610b9257610b916109ae565b5b600082013567ffffffffffffffff811115610bb057610baf6109b3565b5b610bbc84828501610b4e565b91505092915050565b60008060408385031215610bdc57610bdb6109ae565b5b6000610bea858286016109cf565b925050602083013567ffffffffffffffff811115610c0b57610c0a6109b3565b5b610c1785828601610b4e565b9150509250929050565b7f4e487b7100000000000000000000000000000000000000000000000000000000600052603260045260246000fd5b7f4e487b7100000000000000000000000000000000000000000000000000000000600052602260045260246000fd5b60006002820490506001821680610c9757607f821691505b602082108103610caa57610ca9610c50565b5b50919050565b60008190508160005260206000209050919050565b60006020601f8301049050919050565b600082821b905092915050565b600060088302610d127fffffffffffffffffffffffffffffffffffffffffffffffffffffffffffffffff82610cd5565b610d1c8683610cd5565b95508019841693508086168417925050509392505050565b6000819050919050565b6000610d59610d54610d4f84610970565b610d34565b610970565b9050919050565b6000819050919050565b610d7383610d3e565b610d87610d7f82610d60565b848454610ce2565b825550505050565b600090565b610d9c610d8f565b610da7818484610d6a565b505050565b5b81811015610dcb57610dc0600082610d94565b600181019050610dad565b5050565b601f821115610e1057610de181610cb0565b610dea84610cc5565b81016020851015610df9578190505b610e0d610e0585610cc5565b830182610dac565b50505b505050565b600082821c905092915050565b6000610e3360001984600802610e15565b1980831691505092915050565b6000610e4c8383610e22565b9150826002028217905092915050565b610e65826106aa565b67ffffffffffffffff811115610e7e57610e7d610a51565b5b610e888254610c7f565b610e93828285610dcf565b600060209050601f831160018114610ec65760008415610eb4578287015190505b610ebe8582610e40565b865550610f26565b601f198416610ed486610cb0565b60005b82811015610efc57848901518255600182019150602085019450602081019050610ed7565b86831015610f195784890151610f15601f891682610e22565b8355505b6001600288020188555050505b505050505050565b7f4661696c6564205375626d69743a207061727469636970616e74206973206e6f60008201527f7420726567697374657265640000000000000000000000000000000000000000602082015250565b6000610f8a602c836107f2565b9150610f9582610f2e565b604082019050919050565b60006020820190508181036000830152610fb981610f7d565b905091905056fea2646970667358221220a27aeb4e0286e68ca9bd6aa37c59d565cc0a12ae59d65ecf6fdcd58d266c5ecc64736f6c634300081c0033a2646970667358221220472fc4fba4ea9972f3c2365eec9185bf90efd9732132c17b8f27fa895e4357da64736f6c634300081c0033",
  "linkReferences": {},
  "deployedLinkReferences": {}
}