{
  "_format": "hh-sol-artifact-1",
  "contractName": "RoundControl",
  "sourceName": "contracts/RoundControl.sol",
  "abi": [
    {
      "inputs": [
        {
          "internalType": "string",
          "name": "_initialGlobalModelCid",
          "type": "string"
        },
        {
          "internalType": "address",
          "name": "_registrationContract",
          "type": "address"
        }
      ],
      "stateMutability": "nonpayable",
      "type": "constructor"
    },
    {
      "anonymous": false,
      "inputs": [
        {
          "indexed": false,
          "internalType": "uint256",
          "name": "roundId",
          "type": "uint256"
        },
        {
          "indexed": false,
          "internalType": "address",
          "name": "roundAddress",
          "type": "address"
        }
      ],
      "name": "RoundEnded",
      "type": "event"
    },
    {
      "anonymous": false,
      "inputs": [
        {
          "indexed": false,
          "internalType": "uint256",
          "name": "roundId",
          "type": "uint256"
        },
        {
          "indexed": false,
          "internalType": "address",
          "name": "roundAddress",
          "type": "address"
        }
      ],
      "name": "RoundStarted",
      "type": "event"
    },
    {
      "inputs": [],
      "name": "active",
      "outputs": [
        {
          "internalType": "bool",
          "name": "",
          "type": "bool"
        }
      ],
      "stateMutability": "view",
      "type": "function"
    },
    {
      "inputs": [
        {
          "internalType": "uint64",
          "name": "_noOfParticipants",
          "type": "uint64"
        }
      ],
      "name": "createRound",
      "outputs": [
        {
          "internalType": "address",
          "name": "",
          "type": "address"
        }
      ],
      "stateMutability": "nonpayable",
      "type": "function"
    },
    {
      "inputs": [],
      "name": "currentRoundId",
      "outputs": [
        {
          "internalType": "uint256",
          "name": "",
          "type": "uint256"
        }
      ],
      "stateMutability": "view",
      "type": "function"
    },
    {
      "inputs": [
        {
          "internalType": "string",
          "name": "_nextRoundCid",
          "type": "string"
        }
      ],
      "name": "endRound",
      "outputs": [],
      "stateMutability": "nonpayable",
      "type": "function"
    },
    {
      "inputs": [
        {
          "internalType": "uint256",
          "name": "_roundId",
          "type": "uint256"
        }
      ],
      "name": "getRound",
      "outputs": [
        {
          "internalType": "address",
          "name": "",
          "type": "address"
        }
      ],
      "stateMutability": "view",
      "type": "function"
    },
    {
      "inputs": [],
      "name": "noOfParticipants",
      "outputs": [
        {
          "internalType": "uint64",
          "name": "",
          "type": "uint64"
        }
      ],
      "stateMutability": "view",
      "type": "function"
    },
    {
      "inputs": [],
      "name": "numberOfRounds",
      "outputs": [
        {
          "internalType": "uint256",
          "name": "",
          "type": "uint256"
        }
      ],
      "stateMutability": "view",
      "type": "function"
    },
    {
      "inputs": [],
      "name": "owner",
      "outputs": [
        {
          "internalType": "address",
          "name": "",
          "type": "address"
        }
      ],
      "stateMutability": "view",
      "type": "function"
    },
    {
      "inputs": [
        {
          "internalType": "string",
          "name": "_initialGlobalModelCid",
          "type": "string"
        }
      ],
      "name": "setInitialGlobalModleCid",
      "outputs": [],
      "stateMutability": "nonpayable",
      "type": "function"
    },
    {
      "inputs": [
        {
          "internalType": "bool",
          "name": "_active",
          "type": "bool"
        }
      ],
      "name": "setRoundActive",
      "outputs": [],
      "stateMutability": "nonpayable",
      "type": "function"
    },
    {
      "inputs": [
        {
          "internalType": "uint64",
          "name": "_noOfParticipants",
          "type": "uint64"
        }
      ],
      "name": "startRound",
      "outputs": [
        {
          "internalType": "address",
          "name": "",
          "type": "address"
        }
      ],
      "stateMutability": "nonpayable",
      "type": "function"
    },
    {
      "inputs": [
        {
          "internalType": "string",
          "name": "cid",
          "type": "string"
        }
      ],
      "name": "submitParticipantCid",
      "outputs": [],
      "stateMutability": "nonpayable",
      "type": "function"
    }
  ],
  "bytecode": "0x60806040523480156200001157600080fd5b506040516200208a3803806200208a8339810160408190526200003491620000c2565b6002805460008055600160401b600160e81b03191633690100000000000000000002179055600362000067838262000239565b50600480546001600160a01b0319166001600160a01b03929092169190911790555062000305565b634e487b7160e01b600052604160045260246000fd5b80516001600160a01b0381168114620000bd57600080fd5b919050565b60008060408385031215620000d657600080fd5b82516001600160401b0380821115620000ee57600080fd5b818501915085601f8301126200010357600080fd5b8151818111156200011857620001186200008f565b604051601f8201601f19908116603f011681019083821181831017156200014357620001436200008f565b816040528281526020935088848487010111156200016057600080fd5b600091505b8282101562000184578482018401518183018501529083019062000165565b60008484830101528096505050506200019f818601620000a5565b925050509250929050565b600181811c90821680620001bf57607f821691505b602082108103620001e057634e487b7160e01b600052602260045260246000fd5b50919050565b601f8211156200023457600081815260208120601f850160051c810160208610156200020f5750805b601f850160051c820191505b8181101562000230578281556001016200021b565b5050505b505050565b81516001600160401b038111156200025557620002556200008f565b6200026d81620002668454620001aa565b84620001e6565b602080601f831160018114620002a557600084156200028c5750858301515b600019600386901b1c1916600185901b17855562000230565b600085815260208120601f198616915b82811015620002d657888601518255948401946001909101908401620002b5565b5085821015620002f55787850151600019600388901b60f8161c191681555b5050505050600190811b01905550565b611d7580620003156000396000f3fe60806040523480156200001157600080fd5b5060043610620000c35760003560e01c8063512dec39116200007a578063512dec39146200019a5780635bfe14f914620001b15780638da5cb5b14620001c85780638f1327c014620001e35780639cbe5efd146200020f578063b0a242e8146200021957600080fd5b806302fb0c5e14620000c85780630872629614620000f2578063123191d01462000121578063323777d4146200013a5780633bde045f14620001515780634136de12146200016a575b600080fd5b600254620000dd90600160401b900460ff1681565b60405190151581526020015b60405180910390f35b600254620001079067ffffffffffffffff1681565b60405167ffffffffffffffff9091168152602001620000e9565b6200013862000132366004620009d1565b62000230565b005b620001386200014b366004620009d1565b620003c2565b6200015b60015481565b604051908152602001620000e9565b620001816200017b36600462000a59565b6200048b565b6040516001600160a01b039091168152602001620000e9565b62000138620001ab36600462000a8c565b620005b9565b62000181620001c236600462000a59565b6200060b565b6002546200018190600160481b90046001600160a01b031681565b62000181620001f436600462000ab0565b6000908152600560205260409020546001600160a01b031690565b6200015b60005481565b620001386200022a366004620009d1565b620008dd565b600254600160481b90046001600160a01b031633146200026d5760405162461bcd60e51b8152600401620002649062000aca565b60405180910390fd5b600254600160401b900460ff16620002e25760405162461bcd60e51b815260206004820152603160248201527f4661696c656420656e643a204e6f2061637469766520726f756e642063757272604482015270656e746c7920696e2070726f677265737360781b606482015260840162000264565b6002805460ff60401b1916905560008054808252600560209081526040928390205483519283526001600160a01b0316908201527f5d3c6aefe44f1f60da7cb22f07835f2e4ebb305a4d454cb700b47d91aa476107910160405180910390a16000805481526005602052604090819020549051635abf417760e11b81526001600160a01b039091169063b57e82ee906200038190849060040162000b4a565b600060405180830381600087803b1580156200039c57600080fd5b505af1158015620003b1573d6000803e3d6000fd5b50505050620003bf62000923565b50565b600254600160401b900460ff166200040f5760405162461bcd60e51b815260206004820152600f60248201526e139bc81858dd1a5d99481c9bdd5b99608a1b604482015260640162000264565b600080548152600560205260409081902054905160016241606760e01b031981526001600160a01b039091169063ffbe9f999062000454903390859060040162000b5f565b600060405180830381600087803b1580156200046f57600080fd5b505af115801562000484573d6000803e3d6000fd5b5050505050565b600254600090600160481b90046001600160a01b03163314620004c25760405162461bcd60e51b8152600401620002649062000aca565b600254600160401b900460ff16156200052f5760405162461bcd60e51b815260206004820152602860248201527f4661696c65642053746172743a20526f756e642069732063757272656e746c796044820152672072756e6e696e6760c01b606482015260840162000264565b6002805467ffffffffffffffff191667ffffffffffffffff8416179055600062000559836200060b565b6002805460ff60401b1916600160401b179055600054604080519182526001600160a01b03831660208301529192507ff273f67b85d8a5a1f4a4fcd374395f0c2e76be79f5c8e8bf46d30fd8f392a5a6910160405180910390a192915050565b600254600160481b90046001600160a01b03163314620005ed5760405162461bcd60e51b8152600401620002649062000aca565b60028054911515600160401b0260ff60401b19909216919091179055565b600254600090600160481b90046001600160a01b03163314620006425760405162461bcd60e51b8152600401620002649062000aca565b600254600160401b900460ff1615620006af5760405162461bcd60e51b815260206004820152602860248201527f4661696c6564204372656174653a20526f756e642069732043757272656e746c604482015267792061637469766560c01b606482015260840162000264565b6000805460048054604051634c2d17c960e11b815267ffffffffffffffff8716928101929092529192916001600160a01b03169063985a2f9290602401600060405180830381865afa1580156200070a573d6000803e3d6000fd5b505050506040513d6000823e601f3d908101601f1916820160405262000734919081019062000b8d565b905081600003620007b4576000805460038360405162000754906200094e565b620007629392919062000cda565b604051809103906000f0801580156200077f573d6000803e3d6000fd5b5060008054815260056020526040902080546001600160a01b0319166001600160a01b039290921691909117905550620008bc565b60008054600582620007c860018762000da0565b815260200190815260200160002060009054906101000a90046001600160a01b03166001600160a01b03166379dda9186040518163ffffffff1660e01b8152600401600060405180830381865afa15801562000828573d6000803e3d6000fd5b505050506040513d6000823e601f3d908101601f1916820160405262000852919081019062000dbc565b8360405162000861906200094e565b6200086f9392919062000e3c565b604051809103906000f0801580156200088c573d6000803e3d6000fd5b5060008054815260056020526040902080546001600160a01b0319166001600160a01b0392909216919091179055505b5050600080548152600560205260409020546001600160a01b031692915050565b600254600160481b90046001600160a01b03163314620009115760405162461bcd60e51b8152600401620002649062000aca565b60036200091f828262000ec8565b5050565b6000546200093390600162000f95565b600055600254620003bf9067ffffffffffffffff166200048b565b610d948062000fac83390190565b634e487b7160e01b600052604160045260246000fd5b604051601f8201601f1916810167ffffffffffffffff811182821017156200099e576200099e6200095c565b604052919050565b600067ffffffffffffffff821115620009c357620009c36200095c565b50601f01601f191660200190565b600060208284031215620009e457600080fd5b813567ffffffffffffffff811115620009fc57600080fd5b8201601f8101841362000a0e57600080fd5b803562000a2562000a1f82620009a6565b62000972565b81815285602083850101111562000a3b57600080fd5b81602084016020830137600091810160200191909152949350505050565b60006020828403121562000a6c57600080fd5b813567ffffffffffffffff8116811462000a8557600080fd5b9392505050565b60006020828403121562000a9f57600080fd5b8135801515811462000a8557600080fd5b60006020828403121562000ac357600080fd5b5035919050565b6020808252601290820152712737ba1031b7b73a3930b1ba1037bbb732b960711b604082015260600190565b60005b8381101562000b1357818101518382015260200162000af9565b50506000910152565b6000815180845262000b3681602086016020860162000af6565b601f01601f19169290920160200192915050565b60208152600062000a85602083018462000b1c565b6001600160a01b038316815260406020820181905260009062000b859083018462000b1c565b949350505050565b6000602080838503121562000ba157600080fd5b825167ffffffffffffffff8082111562000bba57600080fd5b818501915085601f83011262000bcf57600080fd5b81518181111562000be45762000be46200095c565b8060051b915062000bf784830162000972565b818152918301840191848101908884111562000c1257600080fd5b938501935b8385101562000c4c57845192506001600160a01b038316831462000c3b5760008081fd5b828252938501939085019062000c17565b98975050505050505050565b600181811c9082168062000c6d57607f821691505b60208210810362000c8e57634e487b7160e01b600052602260045260246000fd5b50919050565b600081518084526020808501945080840160005b8381101562000ccf5781516001600160a01b03168752958201959082019060010162000ca8565b509495945050505050565b838152600060206060818401526000855462000cf68162000c58565b806060870152608060018084166000811462000d1b576001811462000d365762000d66565b60ff1985168984015283151560051b89018301955062000d66565b8a6000528660002060005b8581101562000d5e5781548b820186015290830190880162000d41565b8a0184019650505b5050505050838103604085015262000d7f818662000c94565b979650505050505050565b634e487b7160e01b600052601160045260246000fd5b8181038181111562000db65762000db662000d8a565b92915050565b60006020828403121562000dcf57600080fd5b815167ffffffffffffffff81111562000de757600080fd5b8201601f8101841362000df957600080fd5b805162000e0a62000a1f82620009a6565b81815285602083850101111562000e2057600080fd5b62000e3382602083016020860162000af6565b95945050505050565b83815260606020820152600062000e57606083018562000b1c565b828103604084015262000e6b818562000c94565b9695505050505050565b601f82111562000ec357600081815260208120601f850160051c8101602086101562000e9e5750805b601f850160051c820191505b8181101562000ebf5782815560010162000eaa565b5050505b505050565b815167ffffffffffffffff81111562000ee55762000ee56200095c565b62000efd8162000ef6845462000c58565b8462000e75565b602080601f83116001811462000f35576000841562000f1c5750858301515b600019600386901b1c1916600185901b17855562000ebf565b600085815260208120601f198616915b8281101562000f665788860151825594840194600190910190840162000f45565b508582101562000f855787850151600019600388901b60f8161c191681555b5050505050600190811b01905550565b8082018082111562000db65762000db662000d8a56fe60806040523480156200001157600080fd5b5060405162000d9438038062000d94833981016040819052620000349162000244565b60008390556001620000478382620003b8565b5080516200005d906003906020840190620000db565b5060005b600354811015620000d1576001600460006003848154811062000088576200008862000484565b6000918252602080832091909101546001600160a01b031683528201929092526040019020805460ff191691151591909117905580620000c8816200049a565b91505062000061565b50505050620004c2565b82805482825590600052602060002090810192821562000133579160200282015b828111156200013357825182546001600160a01b0319166001600160a01b03909116178255602090920191600190910190620000fc565b506200014192915062000145565b5090565b5b8082111562000141576000815560010162000146565b634e487b7160e01b600052604160045260246000fd5b604051601f8201601f191681016001600160401b03811182821017156200019d576200019d6200015c565b604052919050565b600082601f830112620001b757600080fd5b815160206001600160401b03821115620001d557620001d56200015c565b8160051b620001e682820162000172565b92835284810182019282810190878511156200020157600080fd5b83870192505b84831015620002395782516001600160a01b0381168114620002295760008081fd5b8252918301919083019062000207565b979650505050505050565b6000806000606084860312156200025a57600080fd5b8351602080860151919450906001600160401b03808211156200027c57600080fd5b818701915087601f8301126200029157600080fd5b815181811115620002a657620002a66200015c565b620002ba601f8201601f1916850162000172565b8181528985838601011115620002cf57600080fd5b60005b82811015620002ef578481018601518282018701528501620002d2565b506000918101909401526040870151929450808311156200030f57600080fd5b50506200031f86828701620001a5565b9150509250925092565b600181811c908216806200033e57607f821691505b6020821081036200035f57634e487b7160e01b600052602260045260246000fd5b50919050565b601f821115620003b357600081815260208120601f850160051c810160208610156200038e5750805b601f850160051c820191505b81811015620003af578281556001016200039a565b5050505b505050565b81516001600160401b03811115620003d457620003d46200015c565b620003ec81620003e5845462000329565b8462000365565b602080601f8311600181146200042457600084156200040b5750858301515b600019600386901b1c1916600185901b178555620003af565b600085815260208120601f198616915b82811015620004555788860151825594840194600190910190840162000434565b5085821015620004745787850151600019600388901b60f8161c191681555b5050505050600190811b01905550565b634e487b7160e01b600052603260045260246000fd5b600060018201620004bb57634e487b7160e01b600052601160045260246000fd5b5060010190565b6108c280620004d26000396000f3fe608060405234801561001057600080fd5b50600436106100935760003560e01c80638cd221c9116100665780638cd221c9146100e8578063929066f5146100ff578063b57e82ee14610132578063c3c5a54714610147578063ffbe9f991461017357600080fd5b806330a29d39146100985780634ffb5f7c146100b65780635aa68ac0146100cb57806379dda918146100e0575b600080fd5b6100a0610186565b6040516100ad91906104df565b60405180910390f35b6100be6102e4565b6040516100ad9190610541565b6100d3610372565b6040516100ad919061055b565b6100be6103d4565b6100f160005481565b6040519081526020016100ad565b61012261010d3660046105c4565b60046020526000908152604090205460ff1681565b60405190151581526020016100ad565b610145610140366004610682565b6103e1565b005b6101226101553660046105c4565b6001600160a01b031660009081526004602052604090205460ff1690565b6101456101813660046106bf565b6103f1565b60035460609060009067ffffffffffffffff8111156101a7576101a76105df565b6040519080825280602002602001820160405280156101da57816020015b60608152602001906001900390816101c55790505b50905060005b6003548110156102de5760056000600383815481106102015761020161070d565b60009182526020808320909101546001600160a01b031683528201929092526040019020805461023090610723565b80601f016020809104026020016040519081016040528092919081815260200182805461025c90610723565b80156102a95780601f1061027e576101008083540402835291602001916102a9565b820191906000526020600020905b81548152906001019060200180831161028c57829003601f168201915b50505050508282815181106102c0576102c061070d565b602002602001018190525080806102d690610757565b9150506101e0565b50919050565b600180546102f190610723565b80601f016020809104026020016040519081016040528092919081815260200182805461031d90610723565b801561036a5780601f1061033f5761010080835404028352916020019161036a565b820191906000526020600020905b81548152906001019060200180831161034d57829003601f168201915b505050505081565b606060038054806020026020016040519081016040528092919081815260200182805480156103ca57602002820191906000526020600020905b81546001600160a01b031681526001909101906020018083116103ac575b5050505050905090565b600280546102f190610723565b60026103ed82826107cc565b5050565b6001600160a01b03821660009081526004602052604090205460ff166104725760405162461bcd60e51b815260206004820152602c60248201527f4661696c6564205375626d69743a207061727469636970616e74206973206e6f60448201526b1d081c9959da5cdd195c995960a21b606482015260840160405180910390fd5b6001600160a01b038216600090815260056020526040902061049482826107cc565b505050565b6000815180845260005b818110156104bf576020818501810151868301820152016104a3565b506000602082860101526020601f19601f83011685010191505092915050565b6000602080830181845280855180835260408601915060408160051b870101925083870160005b8281101561053457603f19888603018452610522858351610499565b94509285019290850190600101610506565b5092979650505050505050565b6020815260006105546020830184610499565b9392505050565b6020808252825182820181905260009190848201906040850190845b8181101561059c5783516001600160a01b031683529284019291840191600101610577565b50909695505050505050565b80356001600160a01b03811681146105bf57600080fd5b919050565b6000602082840312156105d657600080fd5b610554826105a8565b634e487b7160e01b600052604160045260246000fd5b600082601f83011261060657600080fd5b813567ffffffffffffffff80821115610621576106216105df565b604051601f8301601f19908116603f01168101908282118183101715610649576106496105df565b8160405283815286602085880101111561066257600080fd5b836020870160208301376000602085830101528094505050505092915050565b60006020828403121561069457600080fd5b813567ffffffffffffffff8111156106ab57600080fd5b6106b7848285016105f5565b949350505050565b600080604083850312156106d257600080fd5b6106db836105a8565b9150602083013567ffffffffffffffff8111156106f757600080fd5b610703858286016105f5565b9150509250929050565b634e487b7160e01b600052603260045260246000fd5b600181811c9082168061073757607f821691505b6020821081036102de57634e487b7160e01b600052602260045260246000fd5b60006001820161077757634e487b7160e01b600052601160045260246000fd5b5060010190565b601f82111561049457600081815260208120601f850160051c810160208610156107a55750805b601f850160051c820191505b818110156107c4578281556001016107b1565b505050505050565b815167ffffffffffffffff8111156107e6576107e66105df565b6107fa816107f48454610723565b8461077e565b602080601f83116001811461082f57600084156108175750858301515b600019600386901b1c1916600185901b1785556107c4565b600085815260208120601f198616915b8281101561085e5788860151825594840194600190910190840161083f565b508582101561087c5787850151600019600388901b60f8161c191681555b5050505050600190811b0190555056fea2646970667358221220dae94bbdddf3ff14ee07ef3c409400114e5811a5c9dbd3a87b0cd1a3e0c6652364736f6c63430008140033a26469706673582212204ac8737bb1f2b896af32b5de6cc8b9920776c8b97bc7e27da3f53b7ab7e6741964736f6c63430008140033",
  "linkReferences": {},
  "deployedLinkReferences": {}
}