{
  "_format": "hh-sol-artifact-1",
  "contractName": "Round",
  "sourceName": "contracts/RoundControl.sol",
  "abi": [
    {
      "inputs": [
        {
          "internalType": "uint256",
          "name": "_roundId",
          "type": "uint256"
        },
        {
          "internalType": "string",
          "name": "_globalModelCid",
          "type": "string"
        },
        {
          "internalType": "address[]",
          "name": "_participants",
          "type": "address[]"
        }
      ],
      "stateMutability": "nonpayable",
      "type": "constructor"
    },
    {
      "inputs": [
        {
          "internalType": "string",
          "name": "_nextRoundCid",
          "type": "string"
        }
      ],
      "name": "Aggregate",
      "outputs": [],
      "stateMutability": "nonpayable",
      "type": "function"
    },
    {
      "inputs": [],
      "name": "getCids",
      "outputs": [
        {
          "internalType": "string[]",
          "name": "",
          "type": "string[]"
        }
      ],
      "stateMutability": "view",
      "type": "function"
    },
    {
      "inputs": [],
      "name": "getParticipants",
      "outputs": [
        {
          "internalType": "address[]",
          "name": "",
          "type": "address[]"
        }
      ],
      "stateMutability": "view",
      "type": "function"
    },
    {
      "inputs": [],
      "name": "globalModelCid",
      "outputs": [
        {
          "internalType": "string",
          "name": "",
          "type": "string"
        }
      ],
      "stateMutability": "view",
      "type": "function"
    },
    {
      "inputs": [
        {
          "internalType": "address",
          "name": "",
          "type": "address"
        }
      ],
      "name": "isParticipant",
      "outputs": [
        {
          "internalType": "bool",
          "name": "",
          "type": "bool"
        }
      ],
      "stateMutability": "view",
      "type": "function"
    },
    {
      "inputs": [
        {
          "internalType": "address",
          "name": "participant",
          "type": "address"
        }
      ],
      "name": "isRegistered",
      "outputs": [
        {
          "internalType": "bool",
          "name": "",
          "type": "bool"
        }
      ],
      "stateMutability": "view",
      "type": "function"
    },
    {
      "inputs": [],
      "name": "nextRoundCid",
      "outputs": [
        {
          "internalType": "string",
          "name": "",
          "type": "string"
        }
      ],
      "stateMutability": "view",
      "type": "function"
    },
    {
      "inputs": [],
      "name": "roundId",
      "outputs": [
        {
          "internalType": "uint256",
          "name": "",
          "type": "uint256"
        }
      ],
      "stateMutability": "view",
      "type": "function"
    },
    {
      "inputs": [
        {
          "internalType": "address",
          "name": "participant",
          "type": "address"
        },
        {
          "internalType": "string",
          "name": "cid",
          "type": "string"
        }
      ],
      "name": "submitModelCid",
      "outputs": [],
      "stateMutability": "nonpayable",
      "type": "function"
    }
  ],
  "bytecode": "0x60806040523480156200001157600080fd5b5060405162000d9438038062000d94833981016040819052620000349162000244565b60008390556001620000478382620003b8565b5080516200005d906003906020840190620000db565b5060005b600354811015620000d1576001600460006003848154811062000088576200008862000484565b6000918252602080832091909101546001600160a01b031683528201929092526040019020805460ff191691151591909117905580620000c8816200049a565b91505062000061565b50505050620004c2565b82805482825590600052602060002090810192821562000133579160200282015b828111156200013357825182546001600160a01b0319166001600160a01b03909116178255602090920191600190910190620000fc565b506200014192915062000145565b5090565b5b8082111562000141576000815560010162000146565b634e487b7160e01b600052604160045260246000fd5b604051601f8201601f191681016001600160401b03811182821017156200019d576200019d6200015c565b604052919050565b600082601f830112620001b757600080fd5b815160206001600160401b03821115620001d557620001d56200015c565b8160051b620001e682820162000172565b92835284810182019282810190878511156200020157600080fd5b83870192505b84831015620002395782516001600160a01b0381168114620002295760008081fd5b8252918301919083019062000207565b979650505050505050565b6000806000606084860312156200025a57600080fd5b8351602080860151919450906001600160401b03808211156200027c57600080fd5b818701915087601f8301126200029157600080fd5b815181811115620002a657620002a66200015c565b620002ba601f8201601f1916850162000172565b8181528985838601011115620002cf57600080fd5b60005b82811015620002ef578481018601518282018701528501620002d2565b506000918101909401526040870151929450808311156200030f57600080fd5b50506200031f86828701620001a5565b9150509250925092565b600181811c908216806200033e57607f821691505b6020821081036200035f57634e487b7160e01b600052602260045260246000fd5b50919050565b601f821115620003b357600081815260208120601f850160051c810160208610156200038e5750805b601f850160051c820191505b81811015620003af578281556001016200039a565b5050505b505050565b81516001600160401b03811115620003d457620003d46200015c565b620003ec81620003e5845462000329565b8462000365565b602080601f8311600181146200042457600084156200040b5750858301515b600019600386901b1c1916600185901b178555620003af565b600085815260208120601f198616915b82811015620004555788860151825594840194600190910190840162000434565b5085821015620004745787850151600019600388901b60f8161c191681555b5050505050600190811b01905550565b634e487b7160e01b600052603260045260246000fd5b600060018201620004bb57634e487b7160e01b600052601160045260246000fd5b5060010190565b6108c280620004d26000396000f3fe608060405234801561001057600080fd5b50600436106100935760003560e01c80638cd221c9116100665780638cd221c9146100e8578063929066f5146100ff578063b23ce5ac14610132578063c3c5a54714610147578063ffbe9f991461017357600080fd5b806330a29d39146100985780634ffb5f7c146100b65780635aa68ac0146100cb57806379dda918146100e0575b600080fd5b6100a0610186565b6040516100ad91906104df565b60405180910390f35b6100be6102e4565b6040516100ad9190610541565b6100d3610372565b6040516100ad919061055b565b6100be6103d4565b6100f160005481565b6040519081526020016100ad565b61012261010d3660046105c4565b60046020526000908152604090205460ff1681565b60405190151581526020016100ad565b610145610140366004610682565b6103e1565b005b6101226101553660046105c4565b6001600160a01b031660009081526004602052604090205460ff1690565b6101456101813660046106bf565b6103f1565b60035460609060009067ffffffffffffffff8111156101a7576101a76105df565b6040519080825280602002602001820160405280156101da57816020015b60608152602001906001900390816101c55790505b50905060005b6003548110156102de5760056000600383815481106102015761020161070d565b60009182526020808320909101546001600160a01b031683528201929092526040019020805461023090610723565b80601f016020809104026020016040519081016040528092919081815260200182805461025c90610723565b80156102a95780601f1061027e576101008083540402835291602001916102a9565b820191906000526020600020905b81548152906001019060200180831161028c57829003601f168201915b50505050508282815181106102c0576102c061070d565b602002602001018190525080806102d690610757565b9150506101e0565b50919050565b600180546102f190610723565b80601f016020809104026020016040519081016040528092919081815260200182805461031d90610723565b801561036a5780601f1061033f5761010080835404028352916020019161036a565b820191906000526020600020905b81548152906001019060200180831161034d57829003601f168201915b505050505081565b606060038054806020026020016040519081016040528092919081815260200182805480156103ca57602002820191906000526020600020905b81546001600160a01b031681526001909101906020018083116103ac575b5050505050905090565b600280546102f190610723565b60026103ed82826107cc565b5050565b6001600160a01b03821660009081526004602052604090205460ff166104725760405162461bcd60e51b815260206004820152602c60248201527f4661696c6564205375626d69743a207061727469636970616e74206973206e6f60448201526b1d081c9959da5cdd195c995960a21b606482015260840160405180910390fd5b6001600160a01b038216600090815260056020526040902061049482826107cc565b505050565b6000815180845260005b818110156104bf576020818501810151868301820152016104a3565b506000602082860101526020601f19601f83011685010191505092915050565b6000602080830181845280855180835260408601915060408160051b870101925083870160005b8281101561053457603f19888603018452610522858351610499565b94509285019290850190600101610506565b5092979650505050505050565b6020815260006105546020830184610499565b9392505050565b6020808252825182820181905260009190848201906040850190845b8181101561059c5783516001600160a01b031683529284019291840191600101610577565b50909695505050505050565b80356001600160a01b03811681146105bf57600080fd5b919050565b6000602082840312156105d657600080fd5b610554826105a8565b634e487b7160e01b600052604160045260246000fd5b600082601f83011261060657600080fd5b813567ffffffffffffffff80821115610621576106216105df565b604051601f8301601f19908116603f01168101908282118183101715610649576106496105df565b8160405283815286602085880101111561066257600080fd5b836020870160208301376000602085830101528094505050505092915050565b60006020828403121561069457600080fd5b813567ffffffffffffffff8111156106ab57600080fd5b6106b7848285016105f5565b949350505050565b600080604083850312156106d257600080fd5b6106db836105a8565b9150602083013567ffffffffffffffff8111156106f757600080fd5b610703858286016105f5565b9150509250929050565b634e487b7160e01b600052603260045260246000fd5b600181811c9082168061073757607f821691505b6020821081036102de57634e487b7160e01b600052602260045260246000fd5b60006001820161077757634e487b7160e01b600052601160045260246000fd5b5060010190565b601f82111561049457600081815260208120601f850160051c810160208610156107a55750805b601f850160051c820191505b818110156107c4578281556001016107b1565b505050505050565b815167ffffffffffffffff8111156107e6576107e66105df565b6107fa816107f48454610723565b8461077e565b602080601f83116001811461082f57600084156108175750858301515b600019600386901b1c1916600185901b1785556107c4565b600085815260208120601f198616915b8281101561085e5788860151825594840194600190910190840161083f565b508582101561087c5787850151600019600388901b60f8161c191681555b5050505050600190811b0190555056fea2646970667358221220a61de3cec7ed295b4f2b595ce44f1691c3d35822632395cb5b4eb881871a683f64736f6c63430008140033",
  "linkReferences": {},
  "deployedLinkReferences": {}
}