{
  "_format": "hh-sol-artifact-1",
  "contractName": "Count",
  "sourceName": "contracts/Count.sol",
  "abi": [
    {
      "inputs": [
        {
          "internalType": "uint32",
          "name": "_count",
          "type": "uint32"
        }
      ],
      "stateMutability": "nonpayable",
      "type": "constructor"
    },
    {
      "anonymous": false,
      "inputs": [
        {
          "indexed": false,
          "internalType": "uint32",
          "name": "count",
          "type": "uint32"
        }
      ],
      "name": "countChanged",
      "type": "event"
    },
    {
      "inputs": [],
      "name": "count",
      "outputs": [
        {
          "internalType": "uint32",
          "name": "",
          "type": "uint32"
        }
      ],
      "stateMutability": "view",
      "type": "function"
    },
    {
      "inputs": [],
      "name": "increment",
      "outputs": [],
      "stateMutability": "nonpayable",
      "type": "function"
    }
  ],
  "bytecode": "0x608060405234801561001057600080fd5b50604051610371380380610371833981810160405281019061003291906100e2565b8063ffffffff1660001061007b576040517f08c379a00000000000000000000000000000000000000000000000000000000081526004016100729061016c565b60405180910390fd5b806000806101000a81548163ffffffff021916908363ffffffff1602179055505061018c565b600080fd5b600063ffffffff82169050919050565b6100bf816100a6565b81146100ca57600080fd5b50565b6000815190506100dc816100b6565b92915050565b6000602082840312156100f8576100f76100a1565b5b6000610106848285016100cd565b91505092915050565b600082825260208201905092915050565b7f436f756e742073686f756c64206e6f74206265206e6567617469766500000000600082015250565b6000610156601c8361010f565b915061016182610120565b602082019050919050565b6000602082019050818103600083015261018581610149565b9050919050565b6101d68061019b6000396000f3fe608060405234801561001057600080fd5b50600436106100365760003560e01c806306661abd1461003b578063d09de08a14610059575b600080fd5b610043610063565b604051610050919061011e565b60405180910390f35b610061610077565b005b60008054906101000a900463ffffffff1681565b60016000808282829054906101000a900463ffffffff166100989190610168565b92506101000a81548163ffffffff021916908363ffffffff1602179055507fc62495739072bfb7570e73dc1666d38b6dac9b0ca6c0e472b850e46f98cad16060008054906101000a900463ffffffff166040516100f5919061011e565b60405180910390a1565b600063ffffffff82169050919050565b610118816100ff565b82525050565b6000602082019050610133600083018461010f565b92915050565b7f4e487b7100000000000000000000000000000000000000000000000000000000600052601160045260246000fd5b6000610173826100ff565b915061017e836100ff565b9250828201905063ffffffff81111561019a57610199610139565b5b9291505056fea2646970667358221220600dbb7e3af03747ba08b5bb7a0515c5940b50a1369db0d1fb751896b3915a6b64736f6c634300081c0033",
  "linkReferences": {},
  "deployedLinkReferences": {}
}