{
  "_format": "hh-sol-artifact-1",
  "contractName": "Registration",
  "sourceName": "contracts/Registration.sol",
  "abi": [
    {
      "inputs": [],
      "stateMutability": "nonpayable",
      "type": "constructor"
    },
    {
      "inputs": [
        {
          "internalType": "address",
          "name": "client",
          "type": "address"
        }
      ],
      "name": "ban",
      "outputs": [],
      "stateMutability": "nonpayable",
      "type": "function"
    },
    {
      "inputs": [],
      "name": "getOwner",
      "outputs": [
        {
          "internalType": "address",
          "name": "",
          "type": "address"
        }
      ],
      "stateMutability": "view",
      "type": "function"
    },
    {
      "inputs": [
        {
          "internalType": "address",
          "name": "client",
          "type": "address"
        }
      ],
      "name": "isBanned",
      "outputs": [
        {
          "internalType": "bool",
          "name": "",
          "type": "bool"
        }
      ],
      "stateMutability": "view",
      "type": "function"
    },
    {
      "inputs": [
        {
          "internalType": "address",
          "name": "client",
          "type": "address"
        }
      ],
      "name": "isRegistered",
      "outputs": [
        {
          "internalType": "bool",
          "name": "",
          "type": "bool"
        }
      ],
      "stateMutability": "view",
      "type": "function"
    },
    {
      "inputs": [
        {
          "internalType": "address",
          "name": "client",
          "type": "address"
        }
      ],
      "name": "isValid",
      "outputs": [
        {
          "internalType": "bool",
          "name": "",
          "type": "bool"
        }
      ],
      "stateMutability": "view",
      "type": "function"
    },
    {
      "inputs": [
        {
          "internalType": "address",
          "name": "client",
          "type": "address"
        }
      ],
      "name": "register",
      "outputs": [],
      "stateMutability": "nonpayable",
      "type": "function"
    },
    {
      "inputs": [
        {
          "internalType": "address",
          "name": "client",
          "type": "address"
        }
      ],
      "name": "unregister",
      "outputs": [],
      "stateMutability": "nonpayable",
      "type": "function"
    }
  ],
  "bytecode": "0x6080604052348015600f57600080fd5b5033600260006101000a81548173ffffffffffffffffffffffffffffffffffffffff021916908373ffffffffffffffffffffffffffffffffffffffff16021790555061082e806100606000396000f3fe608060405234801561001057600080fd5b506004361061007d5760003560e01c80638b1b925f1161005b5780638b1b925f146100d857806397c3ccd81461010857806397f735d514610124578063c3c5a547146101545761007d565b80632ec2c246146100825780634420e4861461009e578063893d20e8146100ba575b600080fd5b61009c60048036038101906100979190610616565b610184565b005b6100b860048036038101906100b39190610616565b610269565b005b6100c261034f565b6040516100cf9190610652565b60405180910390f35b6100f260048036038101906100ed9190610616565b610379565b6040516100ff9190610688565b60405180910390f35b610122600480360381019061011d9190610616565b610423565b005b61013e60048036038101906101399190610616565b610508565b60405161014b9190610688565b60405180910390f35b61016e60048036038101906101699190610616565b61055e565b60405161017b9190610688565b60405180910390f35b6000808273ffffffffffffffffffffffffffffffffffffffff1673ffffffffffffffffffffffffffffffffffffffff16815260200190815260200160002060009054906101000a900460ff1661020f576040517f08c379a000000000000000000000000000000000000000000000000000000000815260040161020690610700565b60405180910390fd5b60008060008373ffffffffffffffffffffffffffffffffffffffff1673ffffffffffffffffffffffffffffffffffffffff16815260200190815260200160002060006101000a81548160ff02191690831515021790555050565b6000808273ffffffffffffffffffffffffffffffffffffffff1673ffffffffffffffffffffffffffffffffffffffff16815260200190815260200160002060009054906101000a900460ff16156102f5576040517f08c379a00000000000000000000000000000000000000000000000000000000081526004016102ec9061076c565b60405180910390fd5b60016000808373ffffffffffffffffffffffffffffffffffffffff1673ffffffffffffffffffffffffffffffffffffffff16815260200190815260200160002060006101000a81548160ff02191690831515021790555050565b6000600260009054906101000a900473ffffffffffffffffffffffffffffffffffffffff16905090565b60008060008373ffffffffffffffffffffffffffffffffffffffff1673ffffffffffffffffffffffffffffffffffffffff16815260200190815260200160002060009054906101000a900460ff16801561041c5750600160008373ffffffffffffffffffffffffffffffffffffffff1673ffffffffffffffffffffffffffffffffffffffff16815260200190815260200160002060009054906101000a900460ff165b9050919050565b6000808273ffffffffffffffffffffffffffffffffffffffff1673ffffffffffffffffffffffffffffffffffffffff16815260200190815260200160002060009054906101000a900460ff166104ae576040517f08c379a00000000000000000000000000000000000000000000000000000000081526004016104a5906107d8565b60405180910390fd5b60018060008373ffffffffffffffffffffffffffffffffffffffff1673ffffffffffffffffffffffffffffffffffffffff16815260200190815260200160002060006101000a81548160ff02191690831515021790555050565b6000600160008373ffffffffffffffffffffffffffffffffffffffff1673ffffffffffffffffffffffffffffffffffffffff16815260200190815260200160002060009054906101000a900460ff169050919050565b60008060008373ffffffffffffffffffffffffffffffffffffffff1673ffffffffffffffffffffffffffffffffffffffff16815260200190815260200160002060009054906101000a900460ff169050919050565b600080fd5b600073ffffffffffffffffffffffffffffffffffffffff82169050919050565b60006105e3826105b8565b9050919050565b6105f3816105d8565b81146105fe57600080fd5b50565b600081359050610610816105ea565b92915050565b60006020828403121561062c5761062b6105b3565b5b600061063a84828501610601565b91505092915050565b61064c816105d8565b82525050565b60006020820190506106676000830184610643565b92915050565b60008115159050919050565b6106828161066d565b82525050565b600060208201905061069d6000830184610679565b92915050565b600082825260208201905092915050565b7f436c69656e74206d757374206e6f742062652072656769737465726564000000600082015250565b60006106ea601d836106a3565b91506106f5826106b4565b602082019050919050565b60006020820190508181036000830152610719816106dd565b9050919050565b7f436c69656e742063616e6e6f7420726567697374657220747769636500000000600082015250565b6000610756601c836106a3565b915061076182610720565b602082019050919050565b6000602082019050818103600083015261078581610749565b9050919050565b7f436c69656e74206d757374206265207265676973746572656400000000000000600082015250565b60006107c26019836106a3565b91506107cd8261078c565b602082019050919050565b600060208201905081810360008301526107f1816107b5565b905091905056fea2646970667358221220164d81801834d4053123f1d7ae3cd9256ac44b51022ac19e3ee9dca90e12abb764736f6c634300081c0033",
  "linkReferences": {},
  "deployedLinkReferences": {}
}